:10000000D1C000000C94B0140C94BC14EAC00000E1
:10001000E8C00000E6C00000E4C00000E2C000004C
:10002000E0C000000C94F113DCC00000DAC0000056
:10003000D8C00000D6C00000D4C00000D2C000006C
:10004000D0C00000CEC00000CCC00000CAC000007C
:10005000C8C00000C6C00000C4C00000C2C000008C
:10006000C0C00000BEC00000BCC00000BAC000009C
:10007000B8C00000B7C00000B4C00000B2C00000AB
:10008000B0C00000AEC00000ACC00000AAC00000BC
:10009000F6C0000013C10000A4C00000A2C0000010
:1000A000A0C000009EC000009CC000009AC00000DC
:1000B00098C0000096C0000094C000001CC1000061
:1000C00090C000008EC000008CC000008AC00000FC
:1000D00088C0000086C0000084C0000082C000000C
:1000E00080C00000466F6C6C6F7765722070617223
:1000F000616D65746572732073657400466F6C6C16
:100100006F77657220726573657400466F6C6C6FF3
:100110007765722070617573656400466F6C6C6FF3
:100120007765722073746172746564004E6F20701D
:1001300061746820617661696C61626C6500506110
:100140007468206F6620257520706F696E74732C3B
:1001500020312E2825692C25692920322E28256951
:100160002C256929202E2E2E00466F6C6C6F77652A
:10017000723A206F7574206F66206D656D6F7279AD
:10018000206F7220706174682068617320746F6FD3
:100190002066657720706F696E747300426F6F74AC
:1001A0006564000011241FBECFEFD1E2DEBFCDBFDA
:1001B0001EBA1FE0A0E0B2E0E0E5FCE400E00BBF07
:1001C00002C007900D92AC30B107D9F726E1ACE040
:1001D000BFE001C01D92A03AB207E1F7D5D60C945A
:1001E0000126B9C52F922FB67F938F939F93CF93FC
:1001F000DF93EF93FF93C0913513D0913613FE0137
:10020000E85DFF4F83E1EF3FF807B1F18181809313
:100210007C00828180937B00F0933613E09335134A
:10022000E881E395EF70E883FF27EE0FFF1FEC0FE7
:10023000FD1F7085909178009087791B8185909142
:1002400079009187890B982F990F990BEC81E71B07
:10025000EC83ED81E80BED83EE81E90BEE83EB811E
:10026000EF77EB83FF91EF91DF91CF919F918F918A
:100270007F912FBE2F901895E7E3F3E1C7CF2F9220
:100280002FB62F93EF93FF932091CE00E0917F152F
:10029000E395EF77F0918015FE1761F0E0937F15FD
:1002A000F0E0E150FB4E2083FF91EF912F912FBEA4
:1002B0002F90189521E020938315F6CF2F922FB61B
:1002C000EF93FF93F0918115E0918215FE1779F07D
:1002D000E395EF7FE0938215F0E0E150FC4EE08182
:1002E000E093CE00FF91EF912FBE2F901895E8E993
:1002F000E093C900F7CF2F922FB6CF93DF93EF9300
:10030000FF93FF27C091A015D091A1152196C0930E
:10031000A015D093A115C091A215D091A315CF1F00
:10032000DF1FC093A215D093A315F09904C0F09AD3
:10033000EFE0F2E003C0F098EDE0F2E0C081D1819F
:100340002296D183C083C0FD05C0F29B03C0EFECB1
:10035000E0937A00FF91EF91DF91CF912FBE2F9024
:100360001895EF92FF920F931F93CF93DF93F09026
:10037000110FC091130FD091140F8E010B5E104F0F
:10038000E090120F12D2E11479F0F80180832196E7
:10039000C115F4E0DF0749F1F82619D2811509F4F7
:1003A0003DC00F5F1F4F01D2813109F44BC08B322A
:1003B00061F7C430D10508F44AC08091150F9091BF
:1003C000160F8927E091170F2E2F22952F70982F47
:1003D00092959F708F708927281709F43EC08091ED
:1003E000100F84608093100F05C08091100F816002
:1003F0008093100FECD1811509F43FC0D6D1813123
:10040000E1F08B3221F18093150F05E11FE0F12C13
:10041000C1E0D0E0F826DBD18111C3CFF092110FFB
:10042000C093130FD093140F8093120FDF91CF91CD
:100430001F910F91FF90EF90089505E11FE0C0E03C
:10044000D0E0F12CC4D18115B1F0AFD19ECF809115
:10045000100F82608093100FCDCF8091150F909177
:10046000160F2497C817D90761F08091100F886084
:100470008093100FBFCF81E0D1CFC0E0D0E0F12C4E
:10048000CDCFF11010C0EF70F0E0EE0FFF1FEB5E6C
:10049000FC4E0190F081E02D309759F0BE0188E1CB
:1004A0009FE00995A7CF8091100F80618093100F76
:1004B000A1CF8091100F80628093100F9BCFE5E158
:1004C000F3E180E2DF011D928A95E9F70895E82FB4
:1004D000F0E0EE0FFF1FEB5EFC4E6083718308952A
:1004E000EF92FF920F931F93CF93DF9300D000D032
:1004F000CDB7DEB7182F69837A837A01413109F4C9
:1005000054C04B3209F451C08E2D3DD18F2D813115
:1005100009F453C08B3209F450C08F2D34D18F2D84
:100520008E258C83807F9C819295907F98271F7069
:10053000912B9B83913109F446C09B3209F443C04F
:100540008B8121D1EC81FB81EF27EB83E114F10456
:10055000C9F009811A81E00EF11E09C0898113D109
:100560009B81E9819E279B83E016F10659F0F801F3
:1005700081918F018983813111F08B3279F781E18B
:1005800002D1ECCFFB81F131D9F0FB32C9F08B8184
:10059000FAD08BE20F900F900F900F90DF91CF91D8
:1005A0001F910F91FF90EF90EEC081E1ECD08E2D66
:1005B000EAD08F2D813109F0ADCF81E1E4D0ADCF0C
:1005C00081E1E1D0E4CF81E1DED0BACF0F931F9378
:1005D000CF93DF93CDB7DEB782E091E00E949921FF
:1005E0008C01009709F12F81FC012193CF019E011D
:1005F000265F3F4F4885598561E071E00E94BF2228
:10060000AC01813091406CF44F5F5F4FB80180E0E6
:1006100067DFC8010E942B22DF91CF911F910F91BC
:10062000089540E051E0F0CF8091100F80648093F6
:10063000100FF2CF0F931F93CF93DF93CDB7DEB799
:1006400082E091E00E9499218C01009709F12F81AD
:10065000FC012193CF019E01265F3F4F48855985BC
:1006600061E071E00E94F822AC01813091406CF4AD
:100670004F5F5F4FB80180E033DFC8010E942B223B
:10068000DF91CF911F910F91089540E051E0F0CF9D
:100690008091100F80648093100FF2CF98D0811159
:1006A00001C008955ECECF93DF93811539F09FB7D7
:1006B000F89485B7806885BF85BF9FBF809164002F
:1006C0008E7F8093640010927A0080B7806880BF2C
:1006D000E7E3F3E188ECDF011D928A95E9F7E09307
:1006E0003513F093361381E08093621382E0809398
:1006F0008A1383E08093B21384E08093DA13AFEF20
:10070000B3E130E040E061E070E058E02381822F07
:100710008F708383822F8770982F90649183EB0171
:1007200001C0CC0F8A95EAF723FF16C03C2B5283F9
:10073000B896AE17BF0751F740937E0030937D0007
:100740008091381380937C008091391380937B00D3
:10075000F29ADF91CF91A2C24C2BEACF98E2899F07
:10076000F0011124E95CFC4E2FB7F8948481958147
:10077000A681B7812FBF24E0B695A7959795879559
:100780002A95D1F70895209181152F5F90918215B8
:100790009217E1F3E22FF0E0E150FC4E80832093CA
:1007A000811588EB8093C900089590917F15809101
:1007B00080159817D1F3909180159F5F9F77E92F4F
:1007C000F0E0E150FB4E80819093801508952091D8
:1007D0007F159091801581E02913089580E0089598
:1007E000E5E6F0E080818E7F80831092CD0010924C
:1007F000CC0080E48093C80088E98093C90086E03B
:100800008093CA000895CF93DF93E5E6F0E08081FE
:10081000877E8083A1E9B0E01C92E1EA108282EF3A
:10082000809390008093A000109292001092A200FA
:100830004FB7F89410929500109294001092A50072
:100840001092A4008FEF9FE1909397008093960001
:100850009093A7008093A6009093990080939800AE
:1008600090939B0080939A009093A9008093A80096
:100870009093AB008093AA008DB188618DB921E07F
:1008800031E0E90188818861888381E883BD81E165
:100890008C93808313BC4FBFDF91CF91089597FD58
:1008A00018C09F710FB6F89410929900109298009A
:1008B00090939B0080939A0077FD1BC07F711092EC
:1008C000A9001092A8007093AB006093AA000FBE1D
:1008D00008959195819591099F710FB6F8941092A2
:1008E0009B0010929A00909399008093980077FF54
:1008F000E5CF7195619571097F711092AB001092EF
:10090000AA007093A9006093A8000FBE08952FB7A6
:10091000F8948FEF9FE190939900809398009093C3
:100920009B0080939A009093A9008093A8009093D5
:10093000AB008093AA002FBF0895CF93DF9300D020
:1009400000D000D0CDB7DEB78D839E83DC018D91C2
:100950009D910D90BC91A02D89839A83AB83BC831C
:1009600040E050E09A01BC01CD010E94052018161C
:1009700064F489819A81AB81BC8180930902909350
:100980000A02A0930B02B0930C02AD81BE811496B3
:100990008C918093080284EE90E09F938F9382E085
:1009A0008F9348DE0F900F900F900F900F900F9045
:1009B0000F900F900F90DF91CF910895EF92FF92DB
:1009C0000F931F93CF93DF93CDB7DEB72E970FB65C
:1009D000F894DEBF0FBECDBF89836D837E838230E6
:1009E00008F4C1C0109285158FEF9FEF8093060227
:1009F000909307021092841510928F1510928A1509
:100A000010928B1510928C1510928D1510928E15D8
:100A10008091861590918715009711F00E942B22E6
:100A20009981892F90E089871A8601967C01EE0CC6
:100A3000FF1CEE0CFF1CC7010E9499218C018093C2
:100A4000861510938715009709F48DC0A7016D8155
:100A50007E810E94B622F981F093851589859A8559
:100A60008250904C880F991F880F991F800F911FFB
:100A70008D879E87FC0104811581E680F780808147
:100A80009181B801681B790B872F880F880B982FED
:100A90000E941B1F69837A838B839C83ED85FE856F
:100AA00082819381B701681B790B872F880F880B90
:100AB000982F0E941B1F6D837E838F8398879B01D5
:100AC000AC0169817A818B819C810E9412206987A7
:100AD0007A878B879C8720E030E040E251E4609188
:100AE000090270910A0280910B0290910C020E94FF
:100AF000A02029853A854B855C850E94801E6987E8
:100B00007A878B879C879B01AC0169817A818B8175
:100B10009C810E94A0200E94E81E600F711FED853D
:100B2000FE856087718729853A854B855C856D8157
:100B30007E818F8198850E94A0200E94E81E6E0D04
:100B40007F1DED85FE856287738781E02E960FB647
:100B5000F894DEBF0FBECDBFDF91CF911F910F91F3
:100B6000FF90EF90089580E0F1CFCF93DF93EC01F9
:100B70008881813060F189F0823009F464C083306B
:100B800009F46DC0E0918815F09189153097E1F076
:100B900069818881DF91CF91099490918515911594
:100BA00009F44EC080938F158BE191E09F938F9352
:100BB00082E08F933FDD0F900F900F90E0918815AA
:100BC000F0918915309721F7DF91CF910895BE01FB
:100BD0006E5F7F4F8981F2DE81110AC089E691E064
:100BE0009F938F931F9226DD0F900F900F90CACF87
:100BF000E0918615F091871587818F9386818F9379
:100C000085818F9384818F9383818F9382818F934A
:100C100081818F9380818F93809185151F928F930F
:100C20008EE391E09F938F9382E08F9303DD8DB7E6
:100C30009EB70D960FB6F8949EBF0FBE8DBFA2CF84
:100C40008CE291E0CDCF10928F152BE031E03F93F5
:100C50002F938F93EFDC0F900F900F9093CF8FEF28
:100C60009FEF8093060290930702109284151092D2
:100C70008F1510928A1510928B1510928C15109268
:100C80008D1510928E158CEF90E090CF65EB75E08E
:100C900083E01DDC6DE974E084E019CCF1991FC09C
:100CA000F19A809165008F7D8093650010922101FB
:100CB0008FB7F894109225011092240128EE33E0AA
:100CC00030932901209328018FBF109222011092A6
:100CD000200182E0809373008AE0809321010895CF
:100CE000EFB7F89420912401309125014091A0158F
:100CF0005091A1156091A2157091A315EFBFFC0151
:100D00004083518362837383248335830895CF9313
:100D1000DF93FC01EB01288139814A815B8180816D
:100D20009181A281B381281B390B4A0B5B0BA8EE82
:100D3000B3E00E94FA1D2C813D8144815581241B22
:100D4000350B032E000C0008620F731F801D901DD1
:100D5000DF91CF9108950F920FB60F92179A1698C0
:100D600090E42FEF30E782E0215030408040E1F7FF
:100D700000C0000082B1805882B982B1892782B94F
:100D8000F0CF0895FC0183858F9382858F938185B1
:100D90008F9380858F9381E692E09F938F9382E07B
:100DA0008F9314DC8DB79EB707960FB6F8949EBF4D
:100DB0000FBE8DBF08957F936F9386E892E09F9357
:100DC0008F9383E08F9302DC0F900F900F900F9022
:100DD0000F900895CF93DF93CDB7DEB728970FB666
:100DE000F894DEBF0FBECDBFDC01EC91EE30D0F445
:100DF000F0E0EE5EF94D0C94EB1D8CEA90E00E9461
:100E0000AC1080EA9FE00E94A71087E00E949A1031
:100E100082E094E09F938F9382E08F93D7DB0F90D3
:100E20000F900F9028960FB6F894DEBF0FBECDBF7F
:100E3000DF91CF91089580E028960FB6F894DEBF39
:100E40000FBECDBFDF91CF910C949A1081E0F4CF0B
:100E500082E0F2CF83E0F0CF80E080DC89839A8368
:100E600081E07CDC8B839C8382E078DC8D839E83B5
:100E700083E074DC8F83988784E070DC9F938F938A
:100E8000B885BF938F818F939E819F93AD81AF93E0
:100E9000BC81BF938B818F939A819F93A981AF93DC
:100EA00088E992E09F938F9382E08F938FDB0FB658
:100EB000F894DEBF0FBECDBFB5CF0E9497148983D3
:100EC0009A830E949C149F938F939A819F93A981E8
:100ED000AF9383ED92E09F938F9382E08F9376DBC5
:100EE0000FB6F894DEBF0FBECDBF9CCF84E00E944A
:100EF0009A108FEE92E08ECF82E390E00E949D10D8
:100F000080EA9FE00E94A71085E00E949A108BE182
:100F100093E080CF84E690E00E949D1080EA9FE0FD
:100F20000E94A71085E00E949A1088E493E072CF97
:100F300080E098E00E94A21080EA9FE00E94A71043
:100F400086E00E949A1087E793E064CF88EE93E0F2
:100F50000E949D1080EA9FE00E94A71085E00E94F9
:100F60009A1082EA93E056CF86E590E00E94AC109A
:100F700080EA9FE00E94A71087E00E949A1082ED0D
:100F800093E048CF08950895CDB7DEB76A970FB6BE
:100F9000F894DEBF0FBECDBF8FEE809364008FE369
:100FA0008093650081B1806C81B91ADC88DA6BEDC1
:100FB00076E080E08CDA61EC76E081E088DA62EC61
:100FC00076E082E084DA62DE63EC77E085E07FDA67
:100FD0006AEE76E086E07BDA62EC77E088E077DA4A
:100FE00012DC5CDE81E05FDB0E94A1140E94E01352
:100FF0000E948D1578948CE991E09F938F9382E005
:101000008F9318DB0F900F900F9080E4D82E94E10F
:10101000E92EF12C78C0F09905C080910D029091D5
:101020000E0204C080910F02909110022091A6152B
:101030003091A715AC01421B530B4639510508F4FA
:1010400061C08093A6159093A7150091A4151091E7
:10105000A515B801812F880F880B982F0E941B1FA0
:101060002CE739ED40E25FE30E94A0202AE939E94C
:1010700049E15EE30E94A0206F8B788F898F9A8F61
:101080000E947D1E20E030E048E453E40E94A0204E
:1010900060931102709312028093130290931402D2
:1010A0006F89788D898D9A8D0E94032120E030E030
:1010B00048E453E40E94A020609315027093160246
:1010C00080931702909318022BED3FE049EC5FE309
:1010D0006F89788D898D9A8D0E94191E60931902EF
:1010E00070931A0280931B0290931C020F5F1F4F94
:1010F0000093A4151093A5154CE050E061E172E057
:1011000082E0EED9CBDA0E947B13F09905C0809182
:101110000D0290910E0204C080910F029091100276
:101120002091AA153091AB15AC01421B530B9A01CB
:10113000243F314038F08093AA159093AB1582B1CB
:101140008D2582B9F09905C080910D0290910E0213
:1011500004C080910F02909110022091A815309147
:10116000A915AC01421B530B9A012C32314008F4F3
:1011700052CF8093A8159093A9150E94E6148983F5
:101180000E94E3148A830E9497148B839C830E949D
:101190009C148D839E8380E0E1DA8F83988781E0C1
:1011A000DDDA89879A8782E0D9DA8B879C8783E0AA
:1011B000D5DA8D879E8784E0D1DA8F87988BE98A8C
:1011C000FA8A84E19EEAA9E2B2E48B8B9C8BAD8B18
:1011D000BE8B46E150E0BE016F5F7F4F81E080D95A
:1011E0001ACFCF93DF93CDB7DEB7A4970FB6F8949D
:1011F000DEBF0FBECDBF8B8B9C8B6D87798B8091B3
:10120000F715811581F08091E015813008F488C0D0
:1012100009F4F0C1A4960FB6F894DEBF0FBECDBF9F
:10122000DF91CF9108950E9497148093F5159093C4
:10123000F6150E949C148093F3159093F4159F93D8
:101240008F938091F6158F938091F5158F9383E797
:1012500096E09F938F9382E08F93B8D92D8520934A
:10126000F11539893093F215C9010E943516809322
:10127000EF159093F0150FB6F894DEBF0FBECDBFFB
:10128000181619060CF042C38091F1159091F215D1
:10129000181619060CF024C388EE93E08093ED1520
:1012A0009093EE15BC01FBDA87EE95E119DD81EE36
:1012B00095E116DD1092E0151092DF151092DE1503
:1012C0001092D8151092D9151092DA151092DB15DC
:1012D0001092DC151092DD1581E08093F715809156
:1012E000F2158F938091F1158F938091F0158F9364
:1012F0008091EF158F93BC89BF932B892F938BEE31
:1013000096E09F938F9382E08F9360D90FB6F89405
:10131000DEBF0FBECDBF8091E015813008F078CFE1
:10132000BE016F5F7F4F6D8B7E8BCB01D9DC0E943E
:1013300097148F8B988F0E949C14898F9A8F20917D
:10134000F5153091F6158F89988D821B930B8D873B
:101350009E874091F3155091F415A98DBA8DA41B69
:10136000B50BA98BBA8B97FD3BC129893A8937FD0B
:101370002DC1821793070CF44FC02B893C8982172B
:1013800093070CF050C06D897E8987EE95E1BFDC34
:101390006035734C8105910508F43CCF8091ED15C3
:1013A0009091EE1588539F4F8093ED159093EE1515
:1013B0006091F1157091F2152091EF153091F015B3
:1013C000AB01261737070CF4A901841795070CF415
:1013D000FFC2C90164DA81EE95E182DC81E080938D
:1013E000E0151092DF158091F2158F938091F11521
:1013F0008F938091F0158F938091EF158F938EE7E7
:1014000097E09F938F9382E08F93E0D80FB6F89484
:10141000DEBF0FBECDBFFECEC9012B893C8982172E
:1014200093070CF4B0CF73DA8D859E8549895A896C
:10143000840F951F0AF40196BC01759567956D8F11
:101440007E8FCB01A92FAA0FAA0B69A39AA3ABA3E6
:10145000ACA320EB32E0DB010E94F41D20E137E277
:1014600040E050E00E94CF1D2F8F38A3AD85BE8590
:1014700029893A89A21BB30BAB8FBC8FAD8BBE8B76
:10148000B7FF06C04D855E85241B350B2D8B3E8B2B
:101490006D8D7E8D81E297E0672B09F451C29F9399
:1014A0008F9372E07F9392D88C898F939B899F93BF
:1014B00083E597E09F938F93A2E0AF9387D8BA8993
:1014C000BF9329892F933A8D3F93498D4F9387EC92
:1014D00094E09F938F9352E05F9378D86E856F93DB
:1014E0007D857F93888D8F939F899F938CEE94E069
:1014F0009F938F93A2E0AF9369D8BE89BF932D8944
:101500002F933C8D3F934B8D4F9381E195E09F93BB
:101510008F9352E05F935AD824E630E0AB8DBC8DB8
:101520000E94F41D29A13AA14BA15CA10E94CF1DEC
:101530003F932F938BE395E09F938F9362E06F939C
:1015400045D80FB6F894DEBF0FBECDBF98A19F93CC
:10155000AF8DAF9388E595E09F938F93B2E0BF93F3
:1015600035D88091F2158F938091F1158F938091EA
:10157000F0158F938091EF158F9382E697E09F93FC
:101580008F9322E02F9322D80FB6F894DEBF0FBEC0
:10159000CDBF6D897E8981E895E0633071050CF4DB
:1015A00085C38D899E8906970CF4C0C3AD89BE8919
:1015B0001B970CF014C289ED95E09F938F93B2E0D6
:1015C000BF9304D80F900F900F907AC19A01A98D04
:1015D000BA8D2A1B3B0B821793070CF0CECE1CCF83
:1015E000C9016F89788D861B970B29893A8937FF46
:1015F000C0CEECCFCE01079673DB2091F115309170
:10160000F215283B5BE0350714F428EB3BE0285B40
:101610003B40A2E3B0E00E948B1D9B01AC01205C2B
:10162000324F4C4F5F4F2D873E874F87588BBE01FF
:10163000695F7F4F81EE95E16ADB2D853E854F85A1
:101640005889621773078407950788F08091DF1522
:10165000811509F418C3BE01695F7F4F8EEC95E1D7
:1016600056DB60347D408340910508F0C4C10E9480
:1016700097148F8B988F0E949C14898F9A8F6091FA
:10168000F5157091F6156D8B7E8B8F89988D861B65
:10169000970B8D879E87A091F315B091F415AB8FB2
:1016A000BC8F298D3A8D2A1B3B0B298B3A8B80915D
:1016B000CD15811509F432C3BE01695F7F4F87ECF8
:1016C00095E125DB603472448F40910508F0F8C243
:1016D0008D859E8597FF06C08D899E894F89588D7F
:1016E000841B950B29893A8937FF06C02B8D3C8DC9
:1016F000698D7A8D261B370B821793070CF4C9016D
:10170000AB89BC898A179B070CF484CD00D98D85E1
:101710009E8529893A89820F931F0AF40196AC01AC
:10172000559547954D8F5E8FBA01872F880F880B8F
:1017300049A37AA38BA38CA320EB32E0DA010E94A9
:10174000F41D20E137E240E050E00E94CF1D2F8FD2
:1017500038A38D859E85A989BA898A1B9B0B8B8F9F
:101760009C8F8D8B9E8B97FF06C02D853E85A21B7F
:10177000B30BAD8BBE8B4D8D5E8D81E994E0452B17
:1017800009F4D7C29F938F9352E05F930E94E602C1
:101790006C896F937B897F9383E597E09F938F9309
:1017A00082E08F930E94E6029A899F93A989AF9362
:1017B000BA8DBF93298D2F9387EC94E09F938F93DD
:1017C00032E03F930E94E6024E854F935D855F9322
:1017D000688D6F937F897F938CEE94E09F938F93B6
:1017E00082E08F930E94E6029E899F93AD89AF931A
:1017F000BC8DBF932B8D2F9381E195E09F938F93A9
:1018000032E03F930E94E60224E630E0AB8DBC8DCF
:101810000E94F41D29A13AA14BA15CA10E94CF1DF9
:101820003F932F938BE395E09F938F9342E04F93E9
:101830000E94E6020FB6F894DEBF0FBECDBF78A1BE
:101840007F938F8D8F9388E595E09F938F9392E0A0
:101850009F930E94E6028091F2158F938091F1157B
:101860008F938091F0158F938091EF158F9382E67F
:1018700097E09F938F93A2E0AF930E94E6020FB68A
:10188000F894DEBF0FBECDBF4D895E894330510550
:101890000CF497C26D897E89663071050CF404C220
:1018A0008D899E890B970CF09AC089ED95E09F93E6
:1018B0008F9392E09F930E94E6020F900F900F90FB
:1018C00087E596E09F938F9382E08F930E94E602D4
:1018D0001092FE151092F7150F900F900F909ACC62
:1018E0009F938F938AEB96E09F938F9381E08F93E2
:1018F0000E94E60288EB9BE08093F1159093F2152D
:101900000F900F900F900F900F90C6CC59895F9356
:101910006D856F939F938F938CE896E09F938F9341
:1019200081E08F930E94E6027D857093EF1589898F
:101930008093F0150FB6F894DEBF0FBECDBFA4CCD8
:101940009F938F93A2E0AF930E94E602BC89BF935E
:101950002B892F9383E597E09F938F9332E03F93FA
:101960000E94E6024A894F9359895F936A8D6F936B
:10197000798D7F9387EC94E09F938F9382E08F9390
:101980000E94E6029E859F93AD85AF93B88DBF936D
:101990002F892F938CEE94E09F938F9332E03F93A7
:1019A0000E94E6024E894F935D895F936C8D6F9321
:1019B0007B8D7F9381E195E09F938F9382E08F935E
:1019C0000E94E6020FB6F894DEBF0FBECDBFBECDBB
:1019D000BC010E944F0487EE95E182D91BCC8AE0BE
:1019E00096E09F938F9381E08F930E94E6020F9081
:1019F0000F900F9065CF9BD7898B9A8B9DD7409185
:101A0000D6155091D71569897A89641B750B6D8736
:101A10007E879B0177FF05C09A01A989BA892A1B95
:101A20003B0B2A3031050CF420C14091D415509164
:101A3000D5159C01241B350B2F8B388F37FF03C026
:101A40009A01281B390B2A3031050CF40EC1209164
:101A5000F5153091F61549895A89421B530B20918F
:101A6000F3153091F415821B930BBA01681B790BA7
:101A7000698F7A8FAD85BE852F89388DA21BB30BF8
:101A8000AB8FBC8FAD8BBE8BB7FF06C06D857E85DF
:101A9000261B370B2D8B3E8B2091EF153091F015C7
:101AA000E98DFA8DF7FF03C0FC01E41BF50B4D89AE
:101AB0005E89473051050CF490C181E08093DE15BA
:101AC0004F3151050CF470C24D895E894033510588
:101AD0000CF034C2CA0163E070E00E949A1D698B69
:101AE0007A8B4B8D5C8D141615060CF0BBC1E5315D
:101AF000F1057CF1E536F1050CF403C2498D5A8DF0
:101B000057FDB3C28D899E89880F991F65E070E0EB
:101B10008E179F070CF47AC2CB0163E070E00E943D
:101B20009A1D49895A89460F571F498B5A8BCA01FA
:101B300057FF03C0919581959109409709F08AC19B
:101B400069897A89161617060CF026C24FE0498B70
:101B50001A8A49895A89240F351F2093EF1530932B
:101B6000F0156091F1157091F215CB0177FD01969A
:101B700095958795AB01481B590B241735072CF415
:101B80004093EF155093F0159A01860F971F821717
:101B900093072CF48093EF159093F0159C01283E49
:101BA00053E035070CF027C188EE93E08093EF15E2
:101BB0009093F0159C01C9010E944F04DE0111961B
:101BC000AD8BBE8BCD018CD88091D8159091D91555
:101BD000A091DA15B091DB15892B8A2B8B2B31F470
:101BE0008091DC159091DD15892B79F06D897E89C6
:101BF00088ED95E18CD849895A89452B31F46034B8
:101C00007D408340910508F454C1BA89BF93298966
:101C10002F938091F2158F938091F1158F9380917E
:101C2000F0158F938091EF158F933A8D3F93498DE7
:101C30004F935C8D5F936B8D6F937E857F938D85C6
:101C40008F93988D9F93AF89AF9389EB97E09F9384
:101C50008F9382E08F930E94E60288ED95E140D851
:101C60000FB6F894DEBF0FBECDBF61D68093D615F8
:101C70009093D71561D68093D4159093D5158EEC9B
:101C800095E12ED8F4CC53D68093D6159093D715E2
:101C900053D68093D4159093D5158EEC95E120D82A
:101CA00081E08093DF15D7CC80EB95E09F938F93F5
:101CB00072E07F930E94E6020F900F900F9000CE8B
:101CC0008091F4158F938091F3158F938091F61581
:101CD0008F938091F5158F934A894F9359895F931C
:101CE0006A8D6F93798D7F938E858F939D859F935A
:101CF000A88DAF93BF89BF9386E098E09F938F93A1
:101D000082E08F930E94E60287EC95E10E947006C4
:101D10000FB6F894DEBF0FBECDBFDACC87EC95E1ED
:101D20000E94700681E08093CD15C6CC80EB95E0D3
:101D3000BECD9F938F93B2E0BF930E94E6022C89A1
:101D40002F933B893F9383E597E09F938F9342E0E6
:101D50004F930E94E6025A895F9369896F937A8D47
:101D60007F93898D8F9387EC94E09F938F9392E07C
:101D70009F930E94E602AE85AF93BD85BF93288DE9
:101D80002F933F893F938CEE94E09F938F9342E093
:101D90004F930E94E6025E895F936D896F937C8DFD
:101DA0007F938B8D8F9381E195E09F938F9392E04A
:101DB0009F930E94E6020FB6F894DEBF0FBECDBF20
:101DC0003ECD81E895E09F938F9352E05F930E9410
:101DD000E6020F900F900F9073CD4D895E894430CD
:101DE0005105A4F08091DE15811509F477C081E0DA
:101DF000898B1A8A76CE30320CF4DDCE8FEF9FE1DC
:101E00008093EF159093F0159C01D5CE1092DE15BE
:101E1000E531F10524F1E536F1050CF493C0698D47
:101E20007A8D77FD67C085E0898B1A8A92CE63E050
:101E300070E00E949A1DA989BA89A60FB71FA98BC5
:101E4000BA8BCD01B7FF03C0919581959109409759
:101E500009F47CCEA989BA89AB2B09F07ACE198A0C
:101E60001A8A7FCE89899A89919581959109E53160
:101E7000F1050CF496C0E536F1050CF440C0698D0F
:101E80007A8D4D895E89440F551F77FDD3C04E175B
:101E90005F070CF001C1A5E0A98B1A8A63E070E02E
:101EA0000E949A1D89899A89860F971F898B9A8B20
:101EB000D1CF8091D8159091D915A091DA15B09114
:101EC000DB15892B8A2B8B2B09F0CFCE8091DC156B
:101ED0009091DD15892B09F498CEC7CEE531F10537
:101EE0000CF4BDCFE536F1050CF4B0C0A98DBA8D68
:101EF000B7FF99CFABEFBFEFA98BBA8B2ACE898BF7
:101F00009A8BE333F10524F1EB34F1050CF471C045
:101F1000698D7A8D77FDD6C064E070E08D899E89E9
:101F2000880F991F8E179F070CF0F6CD89899A8923
:101F3000698B7A8B009709F40CCEB0CFAFE0A98BF8
:101F40001A8ACFCDE333F1050CF04EC0198A1A8AF4
:101F5000E033F1050CF03FC0CF016CE070E00E946F
:101F60009A1DCB01A98DBA8DB7FF61CF882799271C
:101F7000861B970B63E070E00E949A1D89899A89FD
:101F8000860F971F898B9A8B97FF03C09195819538
:101F90009109409709F05ECF81EF9FEF898B9A8B73
:101FA000D8CD898B9A8BD5CD4D895E89403151052D
:101FB0004CF48D899E8963E070E00E949A1D698BC4
:101FC0007A8B8FCD6D897E897595679575956795A7
:101FD000698B7A8B86CD698D7A8D83E090E077FF6F
:101FE00026CF8DEF9FEFC6CFEB34F105DCF4198AD5
:101FF0001A8ACF016FE070E00E949A1D498D5A8DB8
:1020000057FF8CCF71956195710988CF89899A891D
:1020100063E070E00E949A1DAB014B5F5F4F498BFC
:102020005A8B97CD698D7A8D77FD47C084E0898B77
:102030001A8A8FCD4E175F072CF563E070E00E947F
:102040009A1DCB010597898B9A8B83CDE333F105DC
:102050000CF47CCFEB34F10554F2A98DBA8DB7FDA9
:102060002CC064E0698B1A8A74CD8D899E89880F93
:10207000991F8E179F07D4F0A989BA891197A98B48
:10208000BA8BE8CE89899A8980959095898B9A8BAD
:10209000409609F481CF5DCD81E090E0AC01698983
:1020A0007A89461B570B498B5A8BD4CE89899A89DA
:1020B0004BEF5FEF498B5A8BF1CE4CEF5FEF498BC3
:1020C0005A8B47CD6CEF7FEF29CFCF93DF9300D0B2
:1020D00000D000D0CDB7DEB78091C6158115E9F0EC
:1020E000CE0101960E947006BE016F5F7F4F88EFA0
:1020F00095E10E94870661347B448C44910520F071
:102100001092FE151092C6150F900F900F900F9021
:102110000F900F90DF91CF91089588EF95E10E9485
:10212000700668EB7BE0CB010E944F0481E0809356
:10213000C615D6CF8093FE15089580932302909301
:10214000240208958093210290932202089580939F
:102150001F0290932002089580931D0290931E0207
:102160000895CF93DF93CDB7DEB762970FB6F8949B
:10217000DEBF0FBECDBF8B879C876F837887809132
:10218000C515811581F08091AC15813008F488C0A7
:1021900009F491C162960FB6F894DEBF0FBECDBFB1
:1021A000DF91CF910895C3D38093C3159093C41545
:1021B000C3D38093C1159093C2152B853C85B9017B
:1021C000330F880B982F0E941B1F27E834E845E047
:1021D00054E40E94A02020E030E044EB53E40E944D
:1021E000801E24E037EE4CE85DE30E94801E0E94D2
:1021F000E81E6093BF157093C0152F81388537FD99
:102200000FC12D873F8766277727621B730B4B858E
:102210005C85141615060CF011C12093BD15309382
:10222000BE156093BB157093BC158F819885892B63
:1022300009F410C2C90128EE33E02093B915309398
:10224000BA150E944F0483EB95E10E9470068DEA57
:1022500095E10E9470061092AC1581E08093C5153F
:102260003F853F934D854F938091C0158F9380910B
:10227000BF158F935C855F936B856F9384E798E0C0
:102280009F938F9382E08F930E94E6020FB6F8949B
:10229000DEBF0FBECDBF8091AC15813008F078CF86
:1022A0009E012F5F3F4F2B873C87C9010E9470061C
:1022B0003ED38F87988B40D3898B9A8B2091C315FF
:1022C0003091C4154F855889421B530B4F83588753
:1022D0004091C1155091C215841B950B8D879E8727
:1022E0008F81988597FDA0C02D853E8537FDD9C08B
:1022F00082179307ECF12091BF153091C01582171A
:102300009307F4F56B857C8583EB95E10E94870646
:102310006035734C8105910508F43CCF6091B91587
:102320007091BA15CB0188539F4F8093B915909344
:10233000BA152091BD153091BE15A90137FF04C013
:1023400044275527421B530B841795070CF0ABC14C
:1023500048E35FEF461B570B121613060CF09EC1A5
:10236000BA010E944F0483EB95E10E94700612CFE0
:10237000C9012091BF153091C0158217930714F23F
:102380000E94870488EB98E09F938F9372E07F937D
:102390000E94E6028091C0158F938091BF158F93A4
:1023A00080911E028F9380911D028F938CEE98E096
:1023B0009F938F9382E08F930E94E6029E859F9366
:1023C0002D852F933A893F9349894F9387EC94E069
:1023D0009F938F9352E05F930E94E60268856F930C
:1023E0007F817F9388898F939F859F938CEE94E064
:1023F0009F938F9322E02F930E94E60287E596E059
:102400009F938F9332E03F930E94E6021092FE1555
:102410001092C5150FB6F894DEBF0FBECDBFBACE71
:10242000319521953109EDCEC9016F857889861BDB
:10243000970B2D853E8537FF5BCF33C06093BD156D
:102440007093BE152093BB153093BC154F815885F2
:10245000CB01B901452B09F0EECE1F921F9289E402
:1024600098E09F938F9381E08F930E94E60288E427
:1024700094EF8093BD159093BE1588EB9BE08093FD
:10248000BB159093BC150F900F900F900F900F906D
:1024900088E494EF68EB7BE058EB5D872BE02F87B7
:1024A000CACE9A0169897A89261B370B821793074E
:1024B0000CF021CF5DCFCE0101968B879C870E94C7
:1024C00070062091BD153091BE1537FF03C03195C0
:1024D00021953109283B9BE0390714F428EB3BE0B8
:1024E000285B3B40A2E3B0E00E948B1D9B01AC0146
:1024F000205C324F4C4F5F4F2F83388749875A8774
:102500006B857C858DEA95E10E9487062F81388551
:1025100049855A85621773078407950708F43ACEF0
:1025200006D28D879E8708D28F87988B2091C315FE
:102530003091C4154D855E85421B530B4B875C87DC
:102540004091C1155091C215841B950B8F839887BC
:102550008B859C8597FF05C0C9016D857E85861B8F
:10256000970B2F81388537FF05C09A016F857889D1
:10257000261B370B821793070CF4C9012091BF1556
:102580003091C015821793070CF404CE0E94870483
:1025900085E499E09F938F9372E07F930E94E60217
:1025A0008091C0158F938091BF158F9380911E02EB
:1025B0008F9380911D028F938CEE98E09F938F9361
:1025C00082E08F930E94E60298859F932F812F933C
:1025D00038893F934F854F9387EC94E09F938F9377
:1025E00052E05F930E94E6026C856F937B857F9338
:1025F0008E858F939D859F938CEE94E09F938F9310
:1026000022E02F930E94E6028091BC158F93809167
:10261000BB158F938091BE158F938091BD158F93BD
:1026200082E697E09F938F9332E03F930E94E60209
:1026300087E596E09F938F9342E04F930E94E602D6
:102640001092FE151092C5150FB6F894DEBF0FBE9E
:10265000CDBFA0CD1F921F9289E498E09F938F93E6
:1026600081E08F930E94E60288EB9BE08093BD158A
:102670009093BE1588E494EF8093BB159093BC159E
:102680000F900F900F900F900F9088EB9BE068E4F5
:1026900074EF28EB2D873BE03F87CDCDBC01CA010D
:1026A0000E944F0460CE6091BB157091BC15C901AA
:1026B0000E944F048DEA95E10E94700681E08093AC
:1026C000AC158091BC158F938091BB158F93809131
:1026D000BE158F938091BD158F938AE099E09F93EB
:1026E0008F9382E08F930E94E6020FB6F894DEBFCC
:1026F0000FBECDBF4FCDCF93DF9300D0CDB7DEB7A8
:10270000E091FE15E83028F00F900F90DF91CF9107
:102710000895F0E0E05EF94D0C94EB1D60911F020E
:102720007091200280911D0290911E020F900F90D7
:10273000DF91CF9116CD0F900F90DF91CF910C9438
:10274000870468E474EF88EB9BE00F900F90DF91B3
:10275000CF910C944F040F900F90DF91CF91B5CC97
:102760000F900F90DF91CF91B8C280911F0290918E
:10277000200289839A832091230230912402A7ECBE
:10278000B8E30E948B1D28EE33E040E050E00E9449
:10279000CF1D69817A81C9010F900F90DF91CF9190
:1027A0000C94F10860911F02709120028091210227
:1027B000909122020F900F90DF91CF910C94F1082D
:1027C00084B18F7084B9E8E6F0E080818160808315
:1027D000EBE68081806F808383B1807F80930316D6
:1027E00008951F921FB61F9211242F933F934F936A
:1027F0005F936F937F938F939F9393B1292F207F44
:102800008091031682270AF45AC086FD3AC0382FF9
:10281000307185FF22C04091FF155091001695FF41
:102820003FC094FF3FC0CA0101968093FF1590936B
:102830000016311521F04093FF1550930016209398
:1028400003169F918F917F916F915F914F913F916F
:102850002F911F901FBE1F901895311581F3409145
:10286000FF1550910016892F807294FF56C0811574
:1028700009F456C0415051094093FF15509300167A
:10288000DECF409101165091021696FF3DC027FD04
:102890003DC0415051094093011650930216B7CFE5
:1028A00094FFC1CFCA0101978093FF159093001642
:1028B000311529F24093FF1550930016C0CF409177
:1028C000011650910216BA0127FD0FC096FF0FC0E6
:1028D0006F5F7F4F609301167093021686FF97CF4C
:1028E000409301165093021692CF96FFF1CF61509C
:1028F0007109609301167093021686FF88CF40938A
:1029000001165093021683CF27FDC3CF4F5F5F4F51
:1029100040930116509302167ACF811509F4AACF7D
:102920004F5F5F4F4093FF155093001688CF809103
:1029300001169091021608958091FF15909100164E
:1029400008958AB18C7F8AB98BB183608BB98DB3BE
:1029500083608DBBE9E6F0E080818A608083089522
:102960008F938FB78F93809105168F5F8093051695
:102970008F918FBF8F9118951F920F920FB60F9264
:1029800011240BB60F922F933F934F935F936F9346
:102990007F938F939F93AF93BF93EF93FF93E0DF6A
:1029A000FF91EF91BF91AF919F918F917F916F9127
:1029B0005F914F913F912F910F900BBE0F900FBEE3
:1029C0000F901F90189580910516089589B1837016
:1029D00080930416809104160895EF92FF920F934E
:1029E0001F93CF93DF93CDB7DEB72C970FB6F89434
:1029F000DEBF0FBECDBF69837A834B835C83EAEF72
:102A0000FEE020E030E068EB7BE004C06191719172
:102A10002F5F3F4F8617970734F040815181481749
:102A200059070CF05BC02830310581F7E09039027E
:102A3000F0903A02009125021091260244EF51E0F5
:102A400068EB7BE0E2E0EB871C869C01261B370BE2
:102A50002D833E83CA01550FAA0B4F839887A98700
:102A6000AA87EB85FC85E75CFD4F208131812E191B
:102A70003F09AD81BE810E94851D2F813885498522
:102A80005A850E94CF1DE20EF31EAB85BC85AB5D5F
:102A9000BD4F2D913D91201B310BAD81BE810E9418
:102AA000851D2F81388549855A850E94CF1D020FCB
:102AB000131FE981FA81E082F182AB81BC810D9321
:102AC0001D932C960FB6F894DEBF0FBECDBFDF91DD
:102AD000CF911F910F91FF90EF90089541E0420F29
:102AE000A42FB0E0AA0FBB1FAB87BC87FD01E85045
:102AF000F14F40815181461B570B220F331FF901C3
:102B0000E75CFD4FE080F1802B5D3D4FF9010081D6
:102B10001181141615066CF698CF9F92AF92BF9252
:102B2000CF92DF92EF92FF920F931F93CF93DF9399
:102B300000D000D00F92CDB7DEB72FB72983F8941D
:102B40008FB381FB992491F881FDFACF80E090E06A
:102B50000E94DB2549814FBFE8EFFEE029E332E028
:102B600045E252E08E3F9A4C09F181919191D90151
:102B70008D939D939D01DA018D939D93AD01BFE0EF
:102B8000EC30FB0791F790929F160F900F900F90EB
:102B90000F900F90DF91CF911F910F91FF90EF90C9
:102BA000DF90CF90BF90AF909F900895BFB7BB8349
:102BB000F89489E3E82E82E0F82E95E2C92E92E09F
:102BC000D92EE6E1F0E0EC83FD83C601C9829A8349
:102BD0008701F999FECF8C819D8144970E94DB2566
:102BE0005C01F999FECF9FEFA916BA0451F18C81CF
:102BF0009D810E94DB258F3F980719F19501215097
:102C000031092F3F3F41E8F49C01215031092F3F0A
:102C10003F41B8F4D801AD92BD928D01E981FA81AE
:102C200081939193E983FA838C819D8102968C83B1
:102C30009D83AD54B24069F6EB81EFBF9924939424
:102C4000A2CFFB81FFBFE8EFFEE02CE03FE08191E7
:102C50009191D7018D939D937D01D6018D939D9385
:102C60006D012E173F0799F78ECFCF93DF9300D0DA
:102C700000D0CDB7DEB720919F16211541F0893BDA
:102C80002BE092075CF48091390290913A020F9008
:102C90000F900F900F90DF91CF9108958C342DE11C
:102CA00092075CF080914B0290914C020F900F9034
:102CB0000F900F90DF91CF910895AE014F5F5F4F5E
:102CC000BE016D5F7F4F89DE8B819C810F900F90DD
:102CD0000F900F90DF91CF9108950F931F93CF9393
:102CE000DF93CDB7DEB7E4970FB6F894DEBF0FBE23
:102CF000CDBF84E1EDE4F2E0DE01119601900D928A
:102D00008A95E1F780919E1681116CC010929D16F4
:102D100010929C1610929B1688EB9BE0809399165C
:102D200090939A16809397169093981620919F16D9
:102D3000211173C080939516909396169F938F934D
:102D40009F938F9382E999E09F938F9382E08F9373
:102D50000E94E6020FB6F894DEBF0FBECDBF88EE2C
:102D600093E08093931690939416BC010E944F04B5
:102D70008DE896E10E9470068CEB99E09F938F930B
:102D800012E01F930E94E602809198168F93809123
:102D900097168F93809196168F93809195168F93A7
:102DA00083E08F9388EE8F9380919A168F93809112
:102DB00099168F931F928AE08F9380919C1690E0D2
:102DC00001969F938F938BED99E09F938F931F9321
:102DD0000E94E60281E080939E160FB6F894DEBF53
:102DE0000FBECDBFCE014B960E94700680919D16FE
:102DF000813008F42DC111F1823009F46CC18330A7
:102E000009F421C2E4960FB6F894DEBF0FBECDBF21
:102E1000DF91CF911F910F91089580913902909188
:102E20003A0280939516909396162BE02F9328EBF9
:102E30002F939F938F9383E699E086CF20919916E5
:102E400030919A16283BBBE03B070CF441C1285B4C
:102E50003B40A2E3B0E05FD69B01AC01205C324F67
:102E60004C4F5F4F29A33AA34BA35CA3BE01655E01
:102E70007F4F8DE896E10E94870629A13AA14BA1D8
:102E80005CA1621773078407950708F4BBCF809194
:102E90008C16811509F49DC2BE01655E7F4F82E8E4
:102EA00096E10E94870660347D408340910508F4D6
:102EB000A9CF3DDD89A39AA33FDD40918A165091A9
:102EC0008B1609A11AA1041B150B980117FF05C049
:102ED0009A0169A17AA1261B370B2A3031050CF41F
:102EE00074C34091881650918916DC01A41BB50B60
:102EF000A9A3BAA39D01B7FF03C09A01281B390BF0
:102F00002A3031050CF461C3F80129A13AA1E21B72
:102F1000F30BEDA3FEA3CF01F7FF03C0C901801B94
:102F2000910B40919B162091991630919A16E09141
:102F30009516F0919616843091050CF403C54F5FF9
:102F400040939B16493108F035C58F3191050CF03F
:102F50002EC5803191050CF426C563E070E0EAD5FA
:102F6000CB018333910514F082E390E04DA15EA183
:102F7000141615060CF069C5E80FF91FA90137FFF3
:102F800002C04F5F5F4F55954795C901841B950B54
:102F9000E817F9070CF436C5CF0120939716309344
:102FA0009816420F531F481759070CF425C5E09394
:102FB0009516F0939616883E53E095070CF024C5BD
:102FC00088EE93E08093951690939616B9010E942F
:102FD0004F04809198168F93809197168F938091CC
:102FE00096168F93809195168F937EA17F938DA1D6
:102FF0008F931F930F939AA19F93A9A1AF931F92B1
:1030000089E18F9380919B161F928F9380919A16DE
:103010008F93809199168F938EEA9BE09F938F9365
:1030200082E08F930E94E60282DC80938A1690935E
:103030008B1682DC809388169093891682E896E13D
:103040000E9470060FB6F894DEBF0FBECDBFDACE79
:10305000BE01655E7F4F8DE896E10E948706603570
:10306000734C8105910508F4CDCE80919316909113
:10307000941688539F4F8093931690939416609163
:10308000991670919A16861797070CF4D4C060931E
:103090009316709394166093971670939816809178
:1030A0009516909196160E944F0481E080939D168C
:1030B0008DE896E10E94700684E19AE09F938F93D9
:1030C00082E08F930E94E6020F900F900F909ACEAD
:1030D00028EB3BE0BCCECE0145960E947006809165
:1030E0008116811509F44BC2BE016B5E7F4F83E7E9
:1030F00096E10E94870660347D408340910508F088
:1031000085C180916616811509F47CCEBE016B5E87
:103110007F4F80E696E10E94870660347B448C44B2
:10312000910508F46FCE03DC8C0106DC20917F163C
:1031300030918016A801421B530B49A35AA320913A
:103140007D1630917E168C01021B130B20919C166C
:1031500030E040919916E0919A16ECA7F901EE0F34
:10316000FF1FEE0FFF1FEE0FFF1FE20FF31FEA5FBF
:10317000F94E40832CA52183309195163DA32091D3
:1031800096162FA3328323833091971639A7209167
:1031900098162BA73483258389A19AA169E170E051
:1031A000C9D49B01C80169E170E0C4D4261B370B68
:1031B0002683378380919B1680873BA53F93E9A5A3
:1031C000EF93FFA1FF932DA12F9389A19AA1801BBB
:1031D000910B9F938F933AA13F9359A15F931F93B4
:1031E0000F93ECA5EF934F9389EF9CE09F938F9300
:1031F000F2E0FF930E94E60280919C168F5F80931D
:103200009C1610929B1610928C161092811610929A
:1032100066160FB6F894DEBF0FBECDBF8A3008F435
:103220003AC30E94870483E080939D168DE896E15F
:103230000E947006E7CDBC010E944F048DE896E124
:103240000E947006DFCDCE0145960E947006BE0139
:103250006B5E7F4F8DE896E10E9487066034724472
:103260008F40910508F4CECD86E596E09F938F932D
:1032700012E01F930E94E60282E89DE09F938F93E5
:103280001F930E94E60283EA9DE09F938F931F9312
:103290000E94E60286EE9DE09F938F931F930E940B
:1032A000E6020FB6F894DEBF0FBECDBF06E016E112
:1032B00019A21BAA8FEF9FE789AB9AAB1CAA5FC02C
:1032C00020E137E2DF0190D4ADA1BEA19D01BB0F8B
:1032D000440B542F64D42DA73EA74FA758ABEDA5A0
:1032E000FEA5CF0164E670E025D49B011E161F06E3
:1032F0003CF0CF0191958195910964E670E01AD474
:10330000BAA5BF93E9A5EF939F938F933F932F9314
:10331000D80118968C911F928F93BCA5BF93EBA5F3
:10332000EF93FEA1FF932DA12F9338A53F934FA1BB
:103330004F93D80111968C918F938E918F93E9E2E0
:10334000FEE0FF93EF9332E03F930E94E6020FB658
:10335000F894DEBF0FBECDBF69A17AA189A99AA951
:103360006817790724F49CA99BAB69AB7AABACA92D
:10337000AF5FACAB075F1F4FAA3009F435C1D8016E
:103380001696BC91BBA7F801F781FCA7B9A3FAA3D5
:1033900029A13AA137FF05C031952195310929A30B
:1033A0003AA3D80114960D90BC91A02DADA3BEA355
:1033B000F8010280F381E02DEFA3F8A7EA1BFB0BD5
:1033C000E9A7FAA7AB2B09F07BCF80E090E09C0146
:1033D00097CFADDA80938A1690938B16ADDA8093EF
:1033E00088169093891682E896E10E94700681E023
:1033F00080938C168CE49AE09F938F9382E08F9356
:103400000E94E6020F900F900F9046CD90DA89A3AC
:103410009AA392DA40917B1650917C1609A11AA1C9
:10342000041B150B980117FF05C09A0169A17AA129
:10343000261B370B2A3031050CF49AC140917916BE
:1034400050917A16DC01A41BB50BA9A3BAA39D0168
:10345000B7FF03C09A01281B390B2A3031050CF441
:1034600087C1F80129A13AA1E21BF30BEFA3F8A74A
:10347000EDA3FEA3F7FF04C0201B310B2DA33EA339
:10348000809166164DA15EA1443051050CF07FC1BC
:10349000811509F4FCC24BDA80937B1690937C165D
:1034A0004BDA8093791690937A1683E796E10E941F
:1034B0007006BE016B5E7F4F8DE696E10E94870627
:1034C000603472448F40910508F41BCE30DA8C01D1
:1034D00033DA20917F1630918016F801E21BF30B4E
:1034E000E9A3FAA320917D1630917E168C01021B70
:1034F000130BBE016B5E7F4F87E696E10E94870645
:10350000209198162F93209197162F93209196161D
:103510002F93209195162F9329A13AA1201B310BAF
:103520002AF4980149A15AA1241B350B3F932F93EC
:103530005AA15F93A9A1AF931F930F9320E432E4A4
:103540004FE050E00AD35F934F933F932F938091C6
:103550009A168F93809199168F938AEB9CE09F9394
:103560008F9382E08F930E94E6028DE696E10E949F
:1035700070060FB6F894DEBF0FBECDBFC2CDD7D94F
:1035800080937F1690938016D7D980937D16909361
:103590007E16CDD980937B1690937C16CDD98093DF
:1035A000791690937A1683E796E10E9470068DE66D
:1035B00096E10E94700687E696E10E94700681E01F
:1035C00080938116109266168FCDB1D980938A169A
:1035D00090938B16B1D9809388169093891682E8C0
:1035E00096E10E9470060ECC86EE9DE09F938F932D
:1035F00012E01F930E94E602FBA9EF2FF0E0EFA379
:1036000018A6EE0FFF1FEE0FFF1FEE0FFF1FE9A71B
:10361000FAA72FA138A5E20FF31FEA5FF94E8085C4
:103620001F928F9387818F9386818F9381818F9350
:1036300080818F938AE59EE09F938F931F930E94D2
:10364000E6023FB73BA7F8940FB6F894DEBF0FBE73
:10365000CDBF8BA5F999FECF8BA76EEF7AEC80E0FA
:1036600090E00E94E02508E016E166E170E06DA3BD
:103670007EA3C80109A39AA3F999FECFA9A1BAA173
:103680006D917D918DA19EA144970E94E025F999AD
:10369000FECFE9A1FAA1628173818DA19EA10E9452
:1036A000E02529A13AA1275F3F4F29A33AA34DA1C5
:1036B0005EA14E5F5F4F4DA35EA362E676E16217A7
:1036C0007307D1F67BA57FBFA9E3B2E0E5E2F2E0A4
:1036D0009F01F801808191818D939D9382819381D7
:1036E000F901819391939F01075F1F4F42E656E1D5
:1036F0004017510771F781E080939F168FE89EE095
:103700009F938F9312E01F930E94E60289A59AA5CA
:103710006FA178A5860F971FFC01EA5FF94E865FBF
:10372000994EDC0111968C918F9384818F938381C4
:103730008F9382818F9381818F9380818F9385EB8B
:103740009EE09F938F931F930E94E60285ED9EE07B
:103750009F938F931F930E94E60280E00E949A102D
:1037600010929E160FB6F894DEBF0FBECDBF4ACBA7
:10377000DED880937B1690937C16DED880937916E2
:1037800090937A1683E796E10E947006BACC811175
:1037900064C12DA13EA1203131050CF449C12B316A
:1037A00031050CF0AEC1C90163E070E0C3D169A777
:1037B0007AA780919516909196162FA138A512168A
:1037C00013060CF045C149A55AA5840F951F809397
:1037D0009516909396162091991630919A16A901F4
:1037E00037FF02C04F5F5F4F55954795B901641B86
:1037F000750B861797072CF46093951670939616A1
:10380000CB01240F351F281739072CF42093951668
:1038100030939616C901883E73E097070CF0FEC0FE
:1038200088EE93E080939516909396166091971684
:10383000709198160E944F04E9A5FAA534970CF4EC
:103840002ACE809198168F93809197168F938091AE
:1038500096168F93809195168F93F8A5FF932FA1BD
:103860002F931F930F933AA13F9349A14F938091B8
:103870009A168F93809199168F938BE79CE09F9374
:103880008F9382E08F930E94E6020FB6F894DEBF1A
:103890000FBECDBF00CE4091991650919A16FE01F1
:1038A0003196E80FF11DE80FF11D008111810093A1
:1038B000991610939A160093971610939816A09144
:1038C0009516B0919616980120D19A01550F550B77
:1038D000452F65D12093951630939616B801C901EE
:1038E0000E944F048DE896E10E94700681E080936B
:1038F0009D16809198168F93809197168F93809143
:1039000096168F93809195168F9380919A168F9328
:10391000809199168F931F928AE08F9380919C16C5
:1039200090E001969F938F938CE49DE09F938F93FB
:1039300032E03F930E94E6020FB6F894DEBF0FBE5E
:10394000CDBF60CA1F924F93809198168F9380913C
:1039500097168F93FF93EF934EA14F935DA15F93C3
:103960001F930F936AA16F9379A17F933F932F9336
:1039700089E89AE09F938F9312E01F930E94E602DA
:103980008BED9AE09F938F931F930E94E602109312
:103990009D1610928C16109281160FB6F894DEBF09
:1039A0000FBECDBF2FCA863091050CF4DACA9595AB
:1039B0008795D7CA809198168F93809197168F9389
:1039C000FF93EF939EA19F93ADA1AF931F930F938E
:1039D000BAA1BF93E9A1EF933F932F9386E29BE0B7
:1039E0009F938F9312E01F930E94E60280E79BE073
:1039F0009F938F931F93C9CF40939516509396161C
:103A0000CA01D9CAFC01C9CA90320CF4DFCA8FEFCF
:103A10009FE18093951690939616D8CA90320CF435
:103A200005CF8FEF9FE18093951690939616FECE6B
:103A30004DA15EA1493051050CF454C0CA0163E0A8
:103A400070E078D069A77AA7B4CEE81BF90B96CAC4
:103A500069A57AA5861B970BBACE8091991690918D
:103A60009A1610926616AEA1AF93BDA1BF939F9315
:103A70008F9389E19CE09F938F9382E08F930E94C4
:103A8000E6020FB6F894DEBF0FBECDBF82CE0E9415
:103A9000971480937F16909380160E949C148093B5
:103AA0007D1690937E1680E696E10E94700681E076
:103AB000809366165EA15F936DA16F9380919A16B5
:103AC0008F93809199168F938AEE9BE09F938F93AB
:103AD00082E08F930E94E6020FB6F894DEBF0FBE1D
:103AE000CDBFD9CC6DA17EA17595679569A77AA741
:103AF0008DA19EA108970CF45CCEA3E0A9A71AA6FD
:103B000058CEE8E0E9A71AA654CE05D0332312F424
:103B10008A1B9B0B6AC0A29FB001B39FC001A39FE9
:103B2000700D811D1124911DB29F700D811D1124F6
:103B3000911D089597FB072E16F4009406D077FD8B
:103B400008D062D007FC05D03EF4909581959F4F38
:103B50000895709561957F4F0895A1E21A2EAA1BD2
:103B6000BB1BFD010DC0AA1FBB1FEE1FFF1FA2172D
:103B7000B307E407F50720F0A21BB30BE40BF50B2A
:103B8000661F771F881F991F1A9469F760957095B3
:103B9000809590959B01AC01BD01CF010895052E44
:103BA00097FB16F400940FD057FD05D0D6DF07FC25
:103BB00002D046F408C050954095309521953F4F6E
:103BC0004F4F5F4F089590958095709561957F4F09
:103BD0008F4F9F4F0895EE0FFF1F0024001C0BBE58
:103BE0000790F691E02D099496DFB7FF0895821BA8
:103BF000930B089590DFA59F900DB49F900DA49F07
:103C0000800D911D11240895AA1BBB1B51E107C013
:103C1000AA1FBB1FA617B70710F0A61BB70B881F5C
:103C2000991F5A95A9F780959095BC01CD010895EB
:103C30005058BB27AA270ED09CC165D130F06AD15D
:103C400020F031F49F3F11F41EF45AC10EF4E095B8
:103C5000E7FB50C1E92FB0D180F3BA1762077307B1
:103C60008407950718F071F49EF5C8C10EF4E0952D
:103C70000B2EBA2FA02D0B01B90190010C01CA0126
:103C8000A0011124FF27591B99F0593F50F4503ED1
:103C900068F11A16F040A22F232F342F4427585FC3
:103CA000F3CF469537952795A795F0405395C9F7DB
:103CB0007EF41F16BA0B620B730B840BBAF0915093
:103CC000A1F0FF0FBB1F661F771F881FC2F70EC032
:103CD000BA0F621F731F841F48F487957795679505
:103CE000B795F7959E3F08F0B3CF9395880F08F0EE
:103CF0009927EE0F97958795089514D1E3954AC1BA
:103D00000CD037C107D140F0FED030F021F45F3F36
:103D100019F0F0C0511173C1F3C04ED198F399233B
:103D2000C9F35523B1F3951B550BBB27AA2762177F
:103D30007307840738F09F5F5F4F220F331F441FC4
:103D4000AA1FA9F333D00E2E3AF0E0E830D09150FC
:103D50005040E695001CCAF729D0FE2F27D0660FE9
:103D6000771F881FBB1F261737074807AB07B0E828
:103D700009F0BB0B802DBF01FF2793585F4F2AF03E
:103D80009E3F510568F0B6C03AC15F3FECF3983EE4
:103D9000DCF3869577956795B795F7959F5FC9F79B
:103DA000880F911D9695879597F90895E1E0660F24
:103DB000771F881FBB1F621773078407BA0720F09D
:103DC000621B730B840BBA0BEE1F88F7E095089506
:103DD00004D06894B11113C10895F6D088F09F57AC
:103DE00090F0B92F9927B751A0F0D1F0660F771F47
:103DF000881F991F1AF0BA95C9F712C0B13081F027
:103E0000FDD0B1E00895FAC0672F782F8827B85FFA
:103E100039F0B93FCCF3869577956795B395D9F787
:103E20003EF490958095709561957F4F8F4F9F4F91
:103E30000895E89409C097FB3EF49095809570959D
:103E400061957F4F8F4F9F4F9923A9F0F92F96E9E6
:103E5000BB279395F695879577956795B795F1115B
:103E6000F8CFFAF4BB0F11F460FF1BC06F5F7F4FF8
:103E70008F4F9F4F16C0882311F096E911C077230A
:103E800021F09EE8872F762F05C0662371F096E813
:103E9000862F70E060E02AF09A95660F771F881FE2
:103EA000DAF7880F9695879597F90895990F000886
:103EB000550FAA0BE0E8FEEF16161706E807F907FC
:103EC000C0F012161306E407F50798F0621B730B97
:103ED000840B950B39F40A2661F0232B242B252B18
:103EE00021F408950A2609F4A140A6958FEF811DBB
:103EF000811D089597F99F6780E870E060E008955C
:103F00009FEF80EC089500240A94161617061806F1
:103F10000906089500240A941216130614060506CD
:103F20000895EECF51D0E8F3E894E0E0BB279F5727
:103F3000F0F02AED3FE049EC06C0EE0FBB0F661F24
:103F4000771F881F28F0B23A62077307840728F0AA
:103F5000B25A620B730B840BE3959A9572F7803813
:103F600030F49A95BB0F661F771F881FD2F79048D1
:103F700094C1092E0394000C11F4882352F0BB0F56
:103F800040F4BF2B11F460FF04C06F5F7F4F8F4F71
:103F90009F4F0895EF93E0FF06C0A2EA2AED3FE0AD
:103FA00049EC5FEB57DEE5DF0F90039401FC90587E
:103FB000E6E0FCE4B0E084C157FD9058440F551F83
:103FC00059F05F3F71F04795880F97FB991F61F09B
:103FD0009F3F79F087950895121613061406551F12
:103FE000F2CF4695F1DF08C0161617061806991F7E
:103FF000F1CF86957105610508940895E894BB2773
:1040000066277727CB0197F9089550DF08F48FEFE3
:10401000089579DF19F07EDF09F072CF6BCFB90117
:10402000CA0139C19F775F77C7DF98F39923B9F346
:104030005523B9F3FF27951758F4E52FE91BED3009
:1040400070F75E3B10F0F1E41CC09034E0F40AC05D
:10405000E92FE51BED3028F79E3B10F0F1E411C08D
:10406000503488F4F9EA88232AF09A95660F771F6E
:10407000881FDAF744232AF05A95220F331F441F72
:10408000DAF79F1B5F1BFF931F930F93FF92EF9233
:1040900079018A01BB27AB2F9B01AC015FD097014F
:1040A000A801BF937B018C01AA27BA2FB901CA01CD
:1040B00055D0AF919701A801EF90FF900F911F91FC
:1040C000C9DD57DFAAD04F9140FF0895552747FD1E
:1040D000509502C00FCFDFC077DFE8F39923D9F303
:1040E000940F511DBBF39150504094F059F0882328
:1040F00032F0660F771F881F91505040C1F79E3FE6
:10410000510544F7880F911D9695879597F9089565
:104110005F3FACF0983E9CF0BB27869577956795FE
:10412000B79508F4B1609395C1F7BB0F58F711F438
:1041300060FFE8CF6F5F7F4F8F4F9F4FE3CF5FCF21
:104140000BD017CFE0DE28F0E5DE18F0952309F05C
:10415000D1CED6CE112453CF2FDFA0F3959FD1F32C
:10416000950F50E0551F629FF001729FBB27F00D25
:10417000B11D639FAA27F00DB11DAA1F649F66277A
:10418000B00DA11D661F829F2227B00DA11D621FC9
:10419000739FB00DA11D621F839FA00D611D221F83
:1041A000749F3327A00D611D231F849F600D211D67
:1041B000822F762F6A2F11249F5750408AF0E1F00A
:1041C00088234AF0EE0FFF1FBB1F661F771F881F53
:1041D00091505040A9F79E3F510570F08BCE0FCF04
:1041E0005F3FECF3983EDCF3869577956795B7953E
:1041F000F795E7959F5FC1F7FE2B880F911D969568
:10420000879597F908959F938DDE0F9007FCEE5FD9
:10421000C1CE11F40EF474CE3EC0D6DED0F3992395
:10422000D9F3CEF39F57550B87FF43D00024A0E668
:1042300040EA900180585695979528F4805C660F67
:10424000771F881F20F026173707480730F4621BB6
:10425000730B840B202931294A2BA69517940794B8
:10426000202531254A2758F7660F771F881F20F031
:1042700026173707480730F4620B730B840B200DA9
:10428000311D411DA09581F7B901842F9158880FE8
:104290009695879508959F3F31F0915020F487952A
:1042A00077956795B795880F911D9695879597F99E
:1042B000089591505040660F771F881FD2F70895D8
:1042C0009F938F937F936F93BF93FF93EF939B0184
:1042D000AC0136DFEF91FF91BF9105D02F913F9157
:1042E0004F915F912DCFDF93CF931F930F93FF9249
:1042F000EF92DF92BBBF7B018C01689405C0DA2E80
:10430000EF012ADFFE01E894A791279137914791A9
:104310005791AEF3EF019EDCFE019701A801DA94FC
:1043200079F7DF90EF90FF900F911F91CF91DF9180
:1043300008950F931F93CF93DF939C01029710F47E
:1043400022E030E0E0910C0FF0910D0F80E090E062
:10435000DC01309791F4009709F445C0821B930B60
:1043600084309105B0F5DB0112968D919D912097D7
:1043700059F18A839B83FB010DC0408151810281E9
:10438000138142175307B8F089F4109751F0129631
:104390000D931C933296CF01DF91CF911F910F9116
:1043A000089500930C0F10930D0FF4CF009751F068
:1043B0004817590738F0AC01DE01CA01ED01DF01F1
:1043C000F801C7CFBF01F9CF80930C0F90930D0F69
:1043D000D2CFFB01E80FF91F219331930297DB0144
:1043E0008D939D93D8CF40910E0F50910F0F411593
:1043F000510541F4409102025091030240930E0F87
:1044000050930F0F8091000290910102009741F4A8
:104410008DB79EB76091040270910502861B970BC1
:104420004817590708F0B7CF841B950B82179307DD
:1044300008F4B1CFB9016E5F7F4F8617970708F474
:10444000AACF640F751F60930E0F70930F0FFA01C0
:1044500021933193A0CF009709F463C0FC013297F8
:104460001282138220910C0F30910D0FD90140E080
:1044700050E02115310591F420813181820F931F85
:1044800020910E0F30910F0F2817390709F063C0E4
:10449000E0930E0FF0930F0F0895DB01AE17BF07E7
:1044A00008F040C012966D917D911497AD01611591
:1044B000710599F7DA011296ED93FD9314976D91BA
:1044C0007D91CD01860F971FE817F90761F4808170
:1044D00091810296860F971FDA018D939D938281B9
:1044E00093818D939D93E0E0F0E0D90112968D9138
:1044F0009D9114970097A1F58D919D918A0F9B1F17
:1045000040910E0F50910F0F4817590751F43097F3
:1045100051F510920C0F10920D0F20930E0F309347
:104520000F0F0895A283B38360817181860F971F57
:10453000A817B90761F46E5F7F4F8D919D91860F2B
:10454000971F808391838D919D91828393834115E1
:10455000510509F0AFCFE0930C0FF0930D0F0895C4
:10456000F9019C01C2CF12821382D7CFFB01DC017B
:1045700002C001900D9241505040D8F708950F931A
:104580001F93CF93DF93CDB7DEB72E970FB6F89476
:10459000DEBF0FBECDBF8C01CA0146E04C8309834C
:1045A0001A83FB016130704810F0E0E0F0E83197C9
:1045B000ED83FE83A901BC01CE01019652D04D814D
:1045C0005E8157FD0AC02F813885421753070CF4CE
:1045D0009A01020F131FF80110822E960FB6F8945D
:1045E000DEBF0FBECDBFDF91CF911F910F91089518
:1045F0000F931F93CF93DF93CDB7DEB72E970FB6F0
:10460000F894DEBF0FBECDBF8C01CA014EE04C83D3
:1046100009831A83FB016130704810F0E0E0F0E894
:104620003197ED83FE83A901BC01CE01019619D01B
:104630004D815E8157FD0AC02F813885421753078F
:104640000CF49A01020F131FF80110822E960FB678
:10465000F894DEBF0FBECDBFDF91CF911F910F91B8
:1046600008955F926F927F928F929F92AF92BF92C6
:10467000CF92DF92EF92FF920F931F93CF93DF932E
:10468000CDB7DEB72B970FB6F894DEBF0FBECDBF08
:104690006C017B018A01FC0116821782838181FFF4
:1046A000E3C13AE0532EF6012381F70123FD859102
:1046B00023FF81917F01811509F42EC1853239F4E0
:1046C00023FD959123FF91917F01953221F4B6014D
:1046D00090E0E3D1E8CF30E0912C612C712CF0E236
:1046E0007F1640F59B32D9F058F49032D1F09332D6
:1046F000F1F09E3291F576FC0FC1689476F806C011
:104700009D3291F09033C1F4689470F8F70123FD65
:10471000959123FF91917F019111E1CF28C0689479
:1047200071F8689472F8F2CF689473F8EFCF6894D8
:1047300074F8ECCF77FC1BC080ED890F8A30C8F687
:1047400076FE05C0959C800D1124982EDFCF659CC8
:10475000800D1124682E7F2AD9CF9C3619F46894D5
:1047600077F8D4CF9C3409F443C0983679F2892F76
:104770008F7D8554833008F43DC0933609F45EC0C4
:10478000933709F468C0933509F473C0943619F06F
:10479000993609F09DC0F80177FE93C0619171913F
:1047A000819191918F01272D2F76822E97FF03C043
:1047B0000ADA689487F82AE030E05E014FEFA41A25
:1047C000B40AA5019AD1782E7A1886FEDBC0882D0E
:1047D0008E7F791408F0D5C084FE26C182FC1AC1F0
:1047E0002EEE8222B92C882D867809F4D7C017C105
:1047F00031E08CCF3115F9F0085F1F4F8FE38983CB
:1048000021E0822E912C5E012FEFA21AB20AE894C9
:1048100077F873FC03C086149104D8F181149104D5
:1048200009F03DC0611409F43ECFB60180E290E08A
:1048300034D16A94F7CF0C5F1F4FE0CFF80180812D
:1048400089830E5F1F4F91E0892E912C5E01FFEF4F
:10485000AF1ABF0ADCCFF801A190B1908F01692D8A
:1048600070E076FC02C06FEF7FEFC5010BD14C0109
:10487000CECFF801A190B1908F01692D70E076FC48
:1048800002C06FEF7FEFC501F2D04C01689477F85A
:10489000C0CFB60180E290E000D16A94BCCFF501B0
:1048A00077FC859177FE81915F01B60190E0F5D0AC
:1048B00081E0611001C080E0681AF1E08F1A910870
:1048C000ADCF61917191872F880F880B982F6ACF98
:1048D0009537C1F4872CE89484F82AE030E0F80199
:1048E00087FE4AC061917191819191918F015E0122
:1048F000FFEFAF1ABF0AA50100D1782E7A18E8940D
:1049000087F863CF872D897F882E903729F1E8F4C7
:10491000983539F19F3669F1F601868197812B969A
:104920000FB6F894DEBF0FBECDBFDF91CF911F91C0
:104930000F91FF90EF90DF90CF90BF90AF909F903E
:104940008F907F906F905F900895983729F774FC4F
:1049500005C020E130E0C3CF689484F8689482F801
:10496000F8CF74FE03C0E72DE6608E2E20E132E022
:10497000B6CF28E030E0B3CF6191719180E090E054
:10498000B5CF882EB72C84FE2ECFFE01E70DF11D8A
:104990008081803309F041C049EE842283FC0EC03F
:1049A00080FE4DC0972CB61418F4960C9B18B62CAC
:1049B000862D8B196B1408F480E0B80EB61408F03D
:1049C00040C06B1884FE3FC0B60180E390E065D024
:1049D00082FE08C088E590E081FC02C088E790E094
:1049E000B6015BD07914D0F15E018FEFA81AB80A36
:1049F0007A9482E0882E912C8C0E9D1E870C911C3F
:104A0000F40182914F01B60190E047D08A149B04D3
:104A1000B9F708CFB92C882EB8CF82FC02C0B39466
:104A2000BDCFB394B394BACFB92C882EDCCEB601E7
:104A300080E290E032D0A394A614C8F3B9CFAB2C97
:104A4000FBCF612CBFCF882D867861F280E281FC9C
:104A50008BE287FC8DE2B60190E0C3CFB60180E324
:104A600090E01BD09A94BECF8FEF9FEF58CFFC0100
:104A70000590615070400110D8F7809590958E0F89
:104A80009F1F0895FC016150704001900110D8F7FC
:104A9000809590958E0F9F1F08950F931F93CF932E
:104AA000DF93182F092FEB018B8181FD09C00FEFD8
:104AB0001FEF812F902FDF91CF911F910F910895BC
:104AC00082FF14C02E813F818C819D812817390778
:104AD0003CF4E881F981CF010196888399831083A2
:104AE0008E819F8101968E839F83E3CFE885F98530
:104AF000812F0995892BA1F3DACFFA01AA27283053
:104B000051F1203181F1E8946F936E7F6E5F7F4F9A
:104B10008F4F9F4FAF4FB1E03ED0B4E03CD0670F16
:104B2000781F891F9A1FA11D680F791F8A1F911D69
:104B3000A11D6A0F711D811D911DA11D20D009F4B9
:104B400068943F912AE0269F11243019305D3193FB
:104B5000DEF6CF010895462F4770405D4193B3E0E4
:104B60000FD0C9F7F6CF462F4F70405D4A3318F08B
:104B7000495D31FD4052419302D0A9F7EACFB4E03C
:104B8000A6959795879577956795BA95C9F70097F4
:104B90006105710508959B01AC010A2E0694579595
:104BA000479537952795BA95C9F7620F731F841FEC
:104BB000951FA01D0895A8E1B0E042E050E005C0B7
:104BC00012D0272F11C0DC01CB01FC01F999FECFD7
:104BD00006C0F2BDE1BDF89A319600B40D92415085
:104BE0005040B8F70895262FF999FECF1FBA92BD0D
:104BF00081BD20BD0FB6F894FA9AF99A0FBE0196BE
:104C00000895F894FFCF05A84CCDB2D44EB93836EC
:104C1000A9020C50B9918688083CA6AAAA2ABE000F
:104C20000000803F1B07260728072A072C075D077F
:104C300076077C078A079807A6071207B407FD06C0
:104C40009B13A1138413AB13B013B513D2138E139C
:104C50000000A0162000FFFF050000803F0000FFBD
:104C6000FF0000484300000000DB0FC93F5A00B8B6
:104C70000BE8036400B80BB80BB80BB80BB80BB853
:104C80000BB80BB80BB80BB80BB80BB80BB80BB80C
:104C90000BB80BB80BB80BB80BB80BB80BB80BAC08
:104CA0000DA00F941188137C1570176419581B4CB4
:104CB0001D44697374616E7A206175732048575082
:104CC000435320656D7066616E67656E3A20252ED0
:104CD0003166206D6D0072656365697665642025B7
:104CE0007520627974657300495231285246293A19
:104CF00020257520495232285242293A2025752014
:104D00004952332846293A20257520495234284CE7
:104D100046293A20257520495235284C42293A2007
:104D2000257500456E636F64657220523A202564D4
:104D300020456E636F646572204C3A202564004BF9
:104D4000616C696272696572756E672067657374FC
:104D500061727465743A2046616872652031303042
:104D600030205469636B732E2E2E00466168726585
:104D7000203530206D6D20283520636D2920766F19
:104D80007277C3A4727473206D69742050574D20DC
:104D9000343030302E2E2E0046616872652031305E
:104DA00030206D6D2028313020636D2920766F72A0
:104DB00077C3A4727473206D69742050574D2034EA
:104DC0003030302E2E2E004661687265203530302E
:104DD00030207469636B7320766F7277C3A472742A
:104DE00073206D69742050574D20343030302E2E92
:104DF0002E00466168726520313030306D6D20289C
:104E000031303020636D2920766F7277C3A47274BD
:104E100073206D69742050574D20343030302E2E61
:104E20002E004472656865203930C2B0206C696E0E
:104E30006B732061756620646572205374656C6CB9
:104E400065206D69742050574D20343030302E2E3F
:104E50002E00447265686520313830C2B02061751B
:104E60006620646572205374656C6C65206D69748E
:104E70002050574D20343030302E2E2E00466168A1
:104E8000726520313020636D2028313030206D6D07
:104E900029206D697420536F66742D537461727488
:104EA0002C205A69656C2D50574D204C3D256420AF
:104EB000523D25642E2E2E00536F66742D5374615F
:104EC000727420616267657363686C6F7373656E7B
:104ED0002C206661687265206A65747A742E2E2EA5
:104EE000003D3D3D204661687274206162676573D4
:104EF00063686C6F7373656E203D3D3D005A696554
:104F00006C3A2031303030205469636B7320287E36
:104F10003836206D6D2900456E636F646572204CD4
:104F2000696E6B733A20202564202844656C746197
:104F30003A202564205469636B732900456E636FC2
:104F4000646572205265636874733A202564202872
:104F500044656C74613A202564205469636B73293D
:104F600000456E636F6465722D446966666572659F
:104F70006E7A3A202564205469636B73202841625D
:104F8000736F6C75743A202564290050726F7A65CE
:104F90006E7475616C652041627765696368756ED2
:104FA000673A202564252500476566616872656E4D
:104FB000652044697374616E7A3A207E2575206D90
:104FC0006D202844757263687363686E6974742910
:104FD000004B616C696272696572756E673A204553
:104FE000585A454C4C454E542028446966666572B3
:104FF000656E7A203C3D2032205469636B73290032
:105000004B616C696272696572756E673A204755CB
:10501000542028446966666572656E7A203C3D209E
:1050200035205469636B7329004B616C6962726946
:105030006572756E673A20414B5A4550544142455E
:105040004C2028446966666572656E7A203C3D2076
:105050003130205469636B7329004B616C69627253
:10506000696572756E673A205343484C454348540E
:105070002028446966666572656E7A203E2031306C
:10508000205469636B7329202D204E657565204B74
:10509000616C696272696572756E6720656D7066B4
:1050A0006F686C656E21003D3D3D3D3D3D3D3D3DA4
:1050B0003D3D3D3D3D3D3D3D3D3D3D3D3D3D3D3D20
:1050C0003D3D0053746172742D456E636F6465726B
:1050D0003A20523D2564204C3D25640050574D2018
:1050E0004C656674206973742030206F646572208B
:1050F0006E65676174697620282564292C207665A1
:105100007277656E64652025640050574D205269A2
:10511000676874206973742030206F646572206E34
:1051200065676174697620282564292C207665726C
:1051300077656E6465203330303000466168726593
:10514000202564205469636B73206D697420536F4C
:1051500066742D53746172742C2053746172742DB3
:1051600050574D204C3D256420523D25642E2E2E57
:10517000003D3D3D20466168727420616267657341
:1051800063686C6F7373656E202877C3A46872655B
:105190006E6420536F66742D537461727429203DC0
:1051A0003D3D005A69656C3A202564205469636B63
:1051B000730046696E616C652050574D2D576572BE
:1051C00074653A204C3D256420523D256400536FA0
:1051D00066742D53746172742061626765736368CD
:1051E0006C6F7373656E2C206661687265206A65EA
:1051F000747A74206D69742050574D204C3D25649D
:1052000020523D25642E2E2E004B6F7272656B74FA
:1052100075723A205370656564204C3D25642052B8
:105220003D2564205370656564446966663D256468
:1052300020506F73446966663D2564202D3E2050E2
:10524000574D204C3D256420523D25642028416463
:105250006A3D25642900456E636F6465722053744E
:10526000617475733A20523D2564202844656C743E
:10527000613A20256429204C3D2564202844656C32
:1052800074613A202564292053746172743A205263
:105290003D2564204C3D25640050574D20697374B2
:1052A0002030206F646572206E65676174697620B6
:1052B000282564292C2076657277656E6465203315
:1052C00030303000447265686520756D202564C2F9
:1052D000B02061756620646572205374656C6C65DE
:1052E0002C2062656EC3B6746967742025642054EF
:1052F00069636B732070726F205261642C20505769
:105300004D3D25642E2E2E003D3D3D2044726568A6
:10531000756E6720616267657363686C6F73736530
:105320006E202877C3A46872656E6420536F66741C
:105330002D537461727429203D3D3D005A69656C9E
:105340003A202564C2B020282564205469636B7319
:105350002070726F205261642900536F66742D5360
:105360007461727420616267657363686C6F7373D4
:10537000656E2C206472656865206A65747A742095
:105380006D69742050574D204C3D256420523D25B9
:10539000642E2E2E003D3D3D2044726568756E677B
:1053A00020616267657363686C6F7373656E203D1F
:1053B0003D3D00537461727465206D6974206765AA
:1053C000737065696368657274656D205765727482
:1053D0003A204C3D25642028523D2564206669789A
:1053E00029004572737465204B616C69627269654E
:1053F00072756E67202D20737461727465206D69FB
:1054000074204C3D256420523D2564003D3D3D20E7
:105410004B616C696272696572756E67206765734E
:10542000746172746574203D3D3D0050574D2D5799
:105430006572742025642F25643A20256420285342
:105440006F66742D537461727420766F6E202564BC
:105450002C2053746172743A204C3D256420523DD7
:1054600025642900536F66742D5374617274206132
:105470006267657363686C6F7373656E2C20776108
:105480007274652061756620426574726965627325
:10549000647265687A61686C2E2E2E0042657472A3
:1054A00069656273647265687A61686C206572729E
:1054B00065696368742C2073746172746520476534
:1054C00073636877696E6469676B656974736D652A
:1054D0007373756E672E2E2E0050574D2025643A3B
:1054E0002053796E6368726F6E6973696572742197
:1054F00020285370656564204C3D256420523D256D
:105500006420446966663D25642C2050574D204C2C
:105510003D256420523D256429202D202564204905
:105520007465726174696F6E656E0048616C746554
:1055300020456E64676573636877696E6469676B3D
:105540006569742066C3BC7220352053656B756E27
:1055500064656E206D6974206B6F6E74696E756919
:1055600065726C6963686572204B6F7272656B74EB
:1055700075722E2E2E0050574D2025643A204D6115
:105580007820497465726174696F6E656E2065720A
:1055900072656963687420285370656564204C3DAA
:1055A000256420523D256420446966663D25642CAF
:1055B0002050574D204C3D256420523D2564290044
:1055C00048616C746520456E6467657363687769CC
:1055D0006E6469676B6569742066C3BC7220352090
:1055E00053656B756E64656E207A757220C39C621C
:1055F00065727072C3BC66756E672E2E2E00505792
:105600004D20256420497465722025642F25643A55
:10561000205370656564204C3D256420523D25640F
:1056200020446966663D2564202D3E2050574D205C
:105630004C3D256420523D25640050574D20256483
:105640003A20446966666572656E7A207374616299
:10565000696C20282564292C2054696D65722067A7
:1056600065737461727465740050574D2025643AF7
:1056700020446966666572656E7A20C3BC62657295
:1056800073636872697474656E20282564203E20F7
:1056900033292C2054696D6572207A7572C3BC63FE
:1056A0006B67657365747A74202D203573206DC324
:1056B000BC7373656E206E65752067657374617267
:1056C0007465742077657264656E0050574D2025AF
:1056D000643A2035732D4B6F7272656B7475723A34
:1056E000205370656564204C3D256420523D25643F
:1056F00020446966663D2564202D3E2050574D208C
:105700004C3D256420523D25640050574D202564B2
:105710003A205B256C7520735D20537065656420AD
:105720004C3D256420523D2564205469636B732CE5
:1057300020446966663D2564202850574D204C3D25
:10574000256420523D2564290050574D2025643A98
:1057500020456E64676573636877696E6469676B1B
:105760006569742067657072C3BC667420283573E0
:10577000293A204C3D256420523D2564205469631C
:105780006B732C20446966663D2564202850574D74
:10579000204C3D256420523D2564290050574D2D55
:1057A000576572742025642F25643A2025642028CB
:1057B000536D6F6F746820657268C3B668742C206F
:1057C00053746172743A204C3D256420523D256427
:1057D00029003D3D3D204B616C69627269657275BF
:1057E0006E67732DC39C6265727369636874203D34
:1057F0003D3D0050574D202020207C2050574D200B
:105800004C2020207C2050574D20522020207C20EE
:1058100053706565642044696666207C2049746520
:1058200072207C204C2F52202525207C2050574D63
:105830002044696666002D2D2D2D2D2D2D2B2D2D0F
:105840002D2D2D2D2D2D2D2B2D2D2D2D2D2D2D2D8A
:105850002D2B2D2D2D2D2D2D2D2D2D2D2D2D2B2D7C
:105860002D2D2D2D2D2B2D2D2D2D2D2D2D2B2D2D6C
:105870002D2D2D2D2D2D2D2D00253564207C202521
:105880003764207C20253764207C2025313064203B
:105890007C20253464207C20252B33642E25303257
:1058A000642525207C202539640042657374657267
:1058B0002050574D2D576572743A20256420285387
:1058C0007065656420446966663A2025642C20254D
:1058D0006420497465726174696F6E656E29004158
:1058E0006C6C652050574D2D576572746520696E3C
:1058F00020454550524F4D20676573706569636858
:1059000065727421004265737465722050574D2D85
:10591000576572743A20256420284C3D2564205236
:105920003D256429003D3D3D204B616C69627269F3
:105930006572756E6720616267657363686C6F730B
:1059400073656E203D3D3D00B80BAC0DA00F94116A
:0C59500088137C1570176419581B4C1D3F
:00000001FF
