:10000000E0C000000C9498080C94A908F9C0000006
:10001000F7C00000F5C00000F3C00000F1C0000010
:10002000EFC000000C94EC08EBC00000E9C0000039
:10003000E7C00000E5C00000E3C00000E1C0000030
:10004000DFC00000DDC00000DBC00000D9C0000040
:10005000D7C00000D5C00000D3C00000D1C0000050
:10006000CFC00000CDC00000CBC00000C9C0000060
:10007000C7C00000C6C00000C3C00000C1C000006F
:10008000BFC00000BDC00000BBC00000B9C0000080
:1000900005C1000022C10000B3C00000B1C00000D3
:1000A000AFC00000ADC00000ABC00000A9C00000A0
:1000B000A7C00000A5C00000A3C000002BC1000025
:1000C0009FC000009DC000009BC0000099C00000C0
:1000D00097C0000095C0000093C0000091C00000D0
:1000E0008FC0000005A84CCDB2D44EB93836A90255
:1000F0000C50B9918688083CA6AAAA2ABE00000026
:10010000803F466F6C6C6F77657220706172616DB5
:1001100065746572732073657400466F6C6C6F77DD
:10012000657220726573657400466F6C6C6F7765DD
:10013000722070617573656400466F6C6C6F7765D3
:10014000722073746172746564004E6F2070617404
:100150006820617661696C61626C650050617468E9
:10016000206F6620257520706F696E74732C2031A6
:100170002E2825692C25692920322E2825692C2531
:100180006929202E2E2E00466F6C6C6F7765723AAF
:10019000206F7574206F66206D656D6F7279206FAA
:1001A0007220706174682068617320746F6F2066BC
:1001B000657720706F696E747300426F6F74656449
:1001C000000011241FBECFEFD1E2DEBFCDBF1EBAAB
:1001D00012E0A0E0B2E0E8EEF2E200E00BBF02C005
:1001E00007900D92A638B107D9F729E0A6E8B2E04A
:1001F00001C01D92A533B207E1F723D60C9472110A
:1002000083C52F922FB67F938F939F93CF93DF93C6
:10021000EF93FF93C091E706D091E806FE01E85DF9
:10022000FF4F87E0E13BF807B1F1818180937C00CB
:10023000828180937B00F093E806E093E706E881F3
:10024000E395EF70E883FF27EE0FFF1FEC0FFD1F14
:100250007085909178009087791B818590917900C5
:100260009187890B982F990F990BEC81E71BEC83F1
:10027000ED81E80BED83EE81E90BEE83EB81EF7707
:10028000EB83FF91EF91DF91CF919F918F917F91C0
:100290002FBE2F901895E9EEF6E0C7CF2F922FB61C
:1002A0002F93EF93FF932091CE00E091AB06E3955F
:1002B000EF77F091AC06FE1761F0E093AB06F0E04B
:1002C000EF54F84F2083FF91EF912F912FBE2F9085
:1002D000189521E02093AF06F6CF2F922FB6EF931B
:1002E000FF93F091AD06E091AE06FE1779F0E3952D
:1002F000EF7FE093AE06F0E0EF5CF74FE081E09334
:10030000CE00FF91EF912FBE2F901895E8E9E09372
:10031000C900F7CF2F922FB6CF93DF93EF93FF93C0
:10032000FF27C091CC06D091CD062196C093CC0674
:10033000D093CD06C091CE06D091CF06CF1FDF1F40
:10034000C093CE06D093CF06F09904C0F09AEFE0A8
:10035000F2E003C0F098EDE0F2E0C081D181229696
:10036000D183C083C0FD05C0F29B03C0EFECE093D6
:100370007A00FF91EF91DF91CF912FBE2F901895CA
:10038000EF92FF920F931F93CF93DF930091870219
:10039000C0918902D0918A02CE0185579D4F7C0180
:1003A0001091880208C09FEFE91AF90A082710E0A7
:1003B0001AD28823F1F005D2111104C0813149F11C
:1003C0008B3249F1F70180832196C115F4E0DF07F4
:1003D00051F78091860281608093860210E08BE85D
:1003E000E82E82E0F82ED0E0C0E000E0FCD18111E0
:1003F000E2CF00938702D0938A02C09389021170E2
:1004000010938802DF91CF911F910F91FF90EF9091
:10041000089511E0CDCFC430D10568F480918602F3
:1004200082608093860200E09BE8E92E92E0F92E3C
:10043000D0E0C0E0BDCF80918B0290918C028927E3
:10044000982F92959F708F708927E0918D029E2F33
:1004500092959F70981721F0809186028460E1CF79
:10046000249780918B0290918C02C817D90721F0B4
:10047000809186028860D5CF011117C0EF70F0E03F
:10048000EE0FFF1FE557F94F0190F081E02D3097F7
:1004900081F0BE018EE892E00995102F3BE8E32E33
:1004A00032E0F32ED0E0C0E083CF809186028061FD
:1004B000B8CF80918602806280938602102F2BE84D
:1004C000E22E22E0F22ED0E0C0E072CFEBE8F6E0C0
:1004D00080E2DF011D928A95E9F70895E82FF0E0A8
:1004E000EE0FFF1FE557F94F718360830895CF9298
:1004F000DF92EF92FF920F931F93CF93DF93182F0A
:100500006B017A01413109F451C04B3209F44EC0FC
:100510008E2D45D18F2D813109F450C08B3209F4D5
:100520004DC08F2D3CD1DF2DDE2520E1D29FC001B3
:100530001124CD2FC07FC8271F70C12BC13109F4F2
:1005400040C0CB3209F43DC08C2F29D1DC27E11407
:10055000F104C9F08601EC0CFD1C06C08C2F1FD1E4
:10056000DC270E151F0579F0F801C1918F01C1310B
:1005700011F0CB3299F781E112D18C2F10D1DC2709
:100580000E151F0589F7D13171F0DB3261F08D2F27
:1005900006D18BE2DF91CF911F910F91FF90EF90E9
:1005A000DF90CF90FCC081E1FAD0F1CF81E1F7D0AC
:1005B0008E2DF5D08F2D813109F0B0CF81E1EFD0B4
:1005C000B0CF81E1ECD0C0CF0F931F93CF93DF93D7
:1005D000CDB7DEB782E091E00E943A0D8C01009722
:1005E00011F12F81FC012193CF019E01265F3F4F26
:1005F0004885598561E071E00E94680E8130F1E024
:100600009F0774F4AC014F5F5F4FB80180E06FDF6C
:10061000C8010E94D60DDF91CF911F910F910895CF
:1006200080E091E0EFCF8091860280648093860223
:10063000DF91CF911F910F9108950F931F93CF9347
:10064000DF93CDB7DEB782E091E00E943A0D8C01D6
:10065000009711F12F81FC012193CF019E01265FAC
:100660003F4F4885598561E071E00E94A00E8130BE
:10067000F1E09F0774F4AC014F5F5F4FB80180E079
:1006800036DFC8010E94D60DDF91CF911F910F91E7
:10069000089580E091E0EFCF80918602806480939E
:1006A0008602DF91CF911F910F9108959CD0811107
:1006B00001C0089565CECF93882339F09FB7F89491
:1006C00085B7806885BF85BF9FBF809164008E7F9E
:1006D0008093640010927A0080B7806880BFE9EE52
:1006E000F6E088ECDF011D928A95E9F7F093E806C1
:1006F000E093E70681E08093140782E080933C0753
:1007000083E08093640784E080938C07A1EBB7E0DB
:1007100080E040E050E061E070E0C8E0982F9F701A
:100720009383982F9770292F206421839B0101C008
:10073000220F9A95EAF783FF08C0422BC283B8962E
:10074000AE17BF0739F08381E9CF522BB896AE17A9
:10075000BF07C9F750937E0040937D008091EA0661
:1007600080937C008091EB0680937B00F29ACF917E
:100770006AC228E2829FC00111248751994F3FB776
:10078000F894FC0184819581A681B7813FBF24E064
:10079000B695A795979587952A95D1F708952091B5
:1007A000AD062F5F9091AE069217E1F3E22FF0E0D5
:1007B000EF5CF74F80832093AD0688EB8093C900F0
:1007C00008959091AB068091AC069817D1F3909163
:1007D000AC069F5F9F77E92FF0E0EF54F84F8081E0
:1007E0009093AC0608952091AB069091AC0681E001
:1007F0002913089580E00895E5E6F0E080818E7F7A
:1008000080831092CD001092CC0080E48093C800C9
:1008100088E98093C90086E08093CA000895CF9349
:10082000DF93E5E6F0E08081877E8083A1E9B0E098
:100830001C92E1EAF0E0108282EF809390008093B6
:10084000A000109292001092A2002FB7F89410927C
:100850009500109294001092A5001092A4008FEFC2
:100860009FE190939700809396009093A7008093C8
:10087000A600909399008093980090939B0080939A
:100880009A009093A9008093A8009093AB00809366
:10089000AA008DB188618DB9C1E0D1E088818861FD
:1008A000888381E883BD81E18C93808313BC2FBF53
:1008B000DF91CF91089597FD18C09F710FB6F894FE
:1008C000109299001092980090939B0080939A0048
:1008D00077FD1BC07F711092A9001092A800709341
:1008E000AB006093AA000FBE089591958195910980
:1008F0009F710FB6F89410929B0010929A009093FB
:1009000099008093980077FFE5CF71956195710903
:100910007F711092AB001092AA007093A9006093AF
:10092000A8000FBE08952FB7F8948FEF9FE1909322
:1009300099008093980090939B0080939A009093E5
:10094000A9008093A8009093AB008093AA002FBFCA
:100950000895CF92DF92EF92FF92CF93DF93EC0155
:10096000C880D980EA80FB8020E030E0A901C7017F
:10097000B601D6D6181644F4C0920902D0920A02E3
:10098000E0920B02F0920C028C818093080282E0CC
:1009900091E09F938F9382E08F934FDE0F900F90A3
:1009A0000F90DF91CF91FF90EF90DF90CF9008955F
:1009B0002F923F924F925F926F927F928F929F926F
:1009C000AF92BF92CF92DF92EF92FF920F931F935D
:1009D000CF93DF93D82E5B011092B1068FEF9FEF7C
:1009E00090930702809306021092B0061092BB0605
:1009F0001092B6061092B7061092B8061092B90679
:100A00001092BA068091B2069091B306009711F049
:100A10000E94D60D0D2D10E078018FEFE81AF80A2C
:100A2000EE0CFF1CEE0CFF1CC7010E943A0DEC01FE
:100A30009093B3068093B20680E0209709F459C0E2
:100A4000A701B501CE010E945F0ED092B1060250FF
:100A5000104C000F111F000F111FC00FD11F0C8170
:100A60001D812E803F8088819981B801681B790B98
:100A7000072E000C880B990B6AD52B013C018A814B
:100A80009B81B101681B790B072E000C880B990B19
:100A90005ED56B017C01AC019B01C301B2014DD657
:100AA0004B015C0120E030E040E251E4609109023A
:100AB00070910A0280910B0290910C02CCD6A50194
:100AC0009401AAD44B015C01AC019B01C301B201AA
:100AD000C2D60AD5600F711F79876887A501940176
:100AE000C701B601B8D600D5620D731D7B876A8732
:100AF00081E0DF91CF911F910F91FF90EF90DF90F8
:100B0000CF90BF90AF909F908F907F906F905F90AD
:100B10004F903F902F900895CF93DF93EC01888101
:100B2000811113C08981823030F0BE016E5F7F4F2A
:100B30003FDF811125C087E891E09F938F931F923B
:100B40007CDD0F900F900F9008C0813091F08230C3
:100B500009F44BC0833009F457C0E091B406F0911A
:100B6000B506309709F44DC069818881DF91CF9136
:100B700009949091B10691112BC08AE491E0DDCFE8
:100B8000E091B206F091B30687818F9386818F93AF
:100B900085818F9384818F9383818F9382818F93BB
:100BA00081818F9380818F938091B1061F928F9363
:100BB0008CE591E09F938F9382E08F933EDD8DB71C
:100BC0009EB70D960FB6F8949EBF0FBE8DBFC5CFD2
:100BD0008093BB0689E391E09F938F9382E08F938C
:100BE0002CDD0F900F900F90B8CF1092BB0629E22A
:100BF00031E03F932F938F9320DD0F900F900F9054
:100C0000ACCFDF91CF9108958FEF9FEF90930702C4
:100C1000809306021092B0061092BB061092B606A0
:100C20001092B7061092B8061092B9061092BA0642
:100C30008AE191E0D1CF6CE875E083E04FDC69EAAE
:100C400074E084E04BCCF1991FC0F19A809165006B
:100C50008F7D80936500109221018FB7F8941092D8
:100C600025011092240128EE33E0309329012093CE
:100C700028018FBF109222011092200182E0809300
:100C800073008AE0809321010895EFB7F8942091D2
:100C90002401309125014091CC065091CD06609100
:100CA000CE067091CF06EFBFFC0140835183628373
:100CB00073833583248308950F931F93CF93DF931A
:100CC000FC01EB01288139814A815B81808191811E
:100CD000A281B381281B390B4A0B5B0BA8EEB3E052
:100CE000B0D62C813D8144815581241B350B89016F
:100CF000330F220B330B600F711F821F931FDF9185
:100D0000CF911F910F9108951F920F920FB60F92DE
:100D10001124179A169890E42FEF30E782E02150C3
:100D200030408040E1F700C0000082B1805882B9B5
:100D300082B1892782B9F0CF08957F936F938DE1B7
:100D400092E09F938F9383E08F933EDC0F900F9000
:100D50000F900F900F900895CF92DF92EF92FF9235
:100D60000F931F93CF93DF93FC018081823009F4AE
:100D700063C028F1843089F108F45CC08530B1F497
:100D8000D9D2EC01DCD29F938F93DF93CF938AE685
:100D900092E09F938F9382E08F9316DCEDB7FEB7BE
:100DA00037960FB6F894FEBF0FBEEDBFDF91CF911F
:100DB0001F910F91FF90EF90DF90CF9008958823BF
:100DC000B9F1813099F781E0DF91CF911F910F91B7
:100DD000FF90EF90DF90CF9099C180E0CADCEC01EA
:100DE00081E0C7DC182F092F82E0C3DCF82EE92E42
:100DF00083E0BFDCD82EC92E84E0BBDC9F938F93A9
:100E0000CF92DF92EF92FF920F931F93DF93CF93D6
:100E10008FE292E09F938F9382E08F93D5DB8DB723
:100E20009EB70D960FB6F8949EBF0FBE8DBFBECF76
:100E300080E0CACF83E0C8CF82E0C6CF089508958E
:100E40000895CF93DF93CDB7DEB766970FB6F894CA
:100E5000DEBF0FBECDBF8FEE809364008FE3809323
:100E6000650081B1806C81B9C7DC30DB6DE976E06B
:100E700080E034DB6CE976E081E030DB60E277E053
:100E800082E02CDBD8DE6EE177E085E027DB6CEAE0
:100E900076E086E023DB6FE177E088E01FDBBFDCF4
:100EA000D2DE81E008DC35D185D178948AEB91E0FF
:100EB0009F938F9382E08F93C0DB0F900F900F90E2
:100EC00010E484E1E82EF12C94E1892E9EEA992E1B
:100ED00099E2A92E92E4B92E17C0F09905C080912D
:100EE0000D0290910E0204C080910F0290911002A9
:100EF0002091D2063091D306AC01421B530B4639E8
:100F0000510508F066C0D2DBEBD0F09905C08091A6
:100F10000D0290910E0204C080910F029091100278
:100F20002091D6063091D706AC01421B530B9A0193
:100F3000243F314038F09093D7068093D60682B193
:100F4000812782B9F09905C080910D0290910E021F
:100F500004C080910F02909110022091D40630912C
:100F6000D506AC01421B530B9A012C32314008F4D8
:100F7000B4CF9093D5068093D40615D1898310D130
:100F80008A83D8D19C838B83DAD19E838D8380E042
:100F9000F0DB98878F8381E0ECDB9A87898782E09A
:100FA000E8DB9C878B8783E0E4DB9E878D8784E08A
:100FB000E0DB988B8F87FA8AE98A8B8A9C8AAD8AD4
:100FC000BE8A46E150E0BE016F5F7F4F81E08FDA5D
:100FD00084CF9093D3068093D206C090D006D09051
:100FE000D106B6010D2C000C880B990BB0D22CE762
:100FF00039ED40E25FE32FD42AE939E949E15EE3C4
:101000002AD42B013C0105D220E030E048E453E42F
:1010100022D4609311027093120280931302909372
:101020001402C301B2017AD420E030E048E453E472
:1010300012D4609315027093160280931702909356
:1010400018022BED3FE049EC5FE3C301B2017DD113
:101050006093190270931A0280931B0290931C02F2
:101060005FEFC51AD50AD092D106C092D0064CE0E7
:1010700050E061E172E082E03ADA45CFCF93DF934E
:1010800000D000D000D0CDB7DEB78091D80688233D
:10109000D9F0CE010196F9DDBE016F5F7F4F89ED7A
:1010A00096E00ADE61347B448C44910520F0109276
:1010B000DF061092D80626960FB6F894DEBF0FBE54
:1010C000CDBFDF91CF91089589ED96E0DEDD68EB2D
:1010D0007BE088EB9BE0EFDB81E08093D806D9CF03
:1010E0008091DF06813069F058F0823019F083304A
:1010F00031F0089562E77BE088EB9BE0DCCBBECF6C
:1011000012CC68E474EF88EB9BE0D5CB8093DF06CC
:1011100008958AB18C7F8AB98BB183608BB98DB306
:1011200083608DBBE9E6F0E080818A60808308956A
:101130001F920F920FB60F9211248F938091E106A8
:101140008F5F8093E1068F910F900FBE0F901F90DD
:1011500018951F920F920FB60F9211240BB60F9293
:101160002F933F934F935F936F937F938F939F93AF
:10117000AF93BF93EF93FF93DBDFFF91EF91BF91AD
:10118000AF919F918F917F916F915F914F913F911F
:101190002F910F900BBE0F900FBE0F901F901895C0
:1011A0008091E106089589B183708093E006809173
:1011B000E006089584B18F7084B9E8E6F0E080819C
:1011C00081608083EBE6F0E08081806F808383B173
:1011D000807F8093E60608951F920F920FB60F92BC
:1011E00011242F933F934F935F936F938F939F930C
:1011F00023B1322F307F8091E6068327982F907499
:1012000087FD55C091113AC0482F407185FF24C019
:10121000522F50718091E2069091E30625FF3DC068
:1012200051113DC001979093E3068093E206442359
:1012300029F001969093E3068093E2063093E60648
:101240009F918F916F915F914F913F912F910F904F
:101250000FBE0F901F901895442381F3422F4072C8
:101260008091E2069091E30624FF3DC0442309F3F8
:1012700001979093E3068093E206E0CF4091E40665
:101280005091E50626FD26C037FF26C04150510982
:101290005093E5064093E406B7CF5111C3CF0196B2
:1012A0009093E3068093E206442341F2E1CF622F5C
:1012B00060744091E4065091E50637FD25C0662331
:1012C000D1F04F5F5F4F5093E5064093E4069111D4
:1012D000DDCF9ACF37FFDACF4F5F5F4F5093E506F0
:1012E0004093E40691CF4111A4CF01979093E30678
:1012F0008093E206A3CF415051095093E5064093F5
:10130000E4069111E9CF80CF662351F04150510995
:101310005093E5064093E406992309F475CFDCCF9A
:101320004F5F5F4F5093E5064093E406992309F41D
:101330006BCFACCF8091E4069091E5060895809143
:10134000E2069091E30608955058BB27AA270ED0D5
:101350009CC165D130F06AD120F031F49F3F11F487
:101360001EF45AC10EF4E095E7FB50C1E92FAFD14E
:1013700080F3BA17620773078407950718F071F4B2
:101380009EF5C7C10EF4E0950B2EBA2FA02D0B01D0
:10139000B90190010C01CA01A0011124FF27591BBA
:1013A00099F0593F50F4503E68F11A16F040A22FC0
:1013B000232F342F4427585FF3CF46953795279531
:1013C000A795F0405395C9F77EF41F16BA0B620B30
:1013D000730B840BBAF09150A1F0FF0FBB1F661F77
:1013E000771F881FC2F70EC0BA0F621F731F841FBA
:1013F00048F4879577956795B795F7959E3F08F0E0
:10140000B3CF9395880F08F09927EE0F979587959E
:10141000089514D1E3954AC10CD037C107D140F0EB
:10142000FED030F021F45F3F19F0F0C0511172C1CD
:10143000F3C04DD198F39923C9F35523B1F3951B0C
:10144000550BBB27AA2762177307840738F09F5FE5
:101450005F4F220F331F441FAA1FA9F333D00E2E54
:101460003AF0E0E830D091505040E695001CCAF7C1
:1014700029D0FE2F27D0660F771F881FBB1F261786
:1014800037074807AB07B0E809F0BB0B802DBF0159
:10149000FF2793585F4F2AF09E3F510568F0B6C072
:1014A00039C15F3FECF3983EDCF3869577956795FD
:1014B000B795F7959F5FC9F7880F911D969587950A
:1014C00097F90895E1E0660F771F881FBB1F621729
:1014D00073078407BA0720F0621B730B840BBA0BE7
:1014E000EE1F88F7E095089504D06894B11112C1F9
:1014F0000895F5D088F09F5790F0B92F9927B751EC
:10150000A0F0D1F0660F771F881F991F1AF0BA95C7
:10151000C9F712C0B13081F0FCD0B1E00895F9C034
:10152000672F782F8827B85F39F0B93FCCF38695BD
:1015300077956795B395D9F73EF49095809570951A
:1015400061957F4F8F4F9F4F0895E89409C097FB97
:101550003EF490958095709561957F4F8F4F9F4F8A
:101560009923A9F0F92F96E9BB279395F6958795CE
:1015700077956795B795F111F8CFFAF4BB0F11F491
:1015800060FF1BC06F5F7F4F8F4F9F4F16C0882338
:1015900011F096E911C0772321F09EE8872F762F6E
:1015A00005C0662371F096E8862F70E060E02AF0AF
:1015B0009A95660F771F881FDAF7880F969587959B
:1015C00097F90895990F0008550FAA0BE0E8FEEF70
:1015D00016161706E807F907C0F012161306E407F7
:1015E000F50798F0621B730B840B950B39F40A26F0
:1015F00061F0232B242B252B21F408950A2609F4CE
:10160000A140A6958FEF811D811D089597F99F67D1
:1016100080E870E060E008959FEF80EC089500247A
:101620000A941616170618060906089500240A9447
:1016300012161306140605060895EECF50D0E8F3EF
:10164000E894E0E0BB279F57F0F02AED3FE049EC3B
:1016500006C0EE0FBB0F661F771F881F28F0B23A37
:1016600062077307840728F0B25A620B730B840B6E
:10167000E3959A9572F7803830F49A95BB0F661F00
:10168000771F881FD2F7904893C1092E0394000C4E
:1016900011F4882352F0BB0F40F4BF2B11F460FF0C
:1016A00004C06F5F7F4F8F4F9F4F0895EF93E0FF10
:1016B00006C0A2EA2AED3FE049EC5FEB57DEE5DF2A
:1016C0000F90039401FC9058E4EEF0E084C157FDC4
:1016D0009058440F551F59F05F3F71F04795880FA0
:1016E00097FB991F61F09F3F79F087950895121637
:1016F00013061406551FF2CF4695F1DF08C01616E3
:1017000017061806991FF1CF869571056105089493
:101710000895E894BB2766277727CB0197F90895AA
:1017200051DF08F48FEF08957ADF19F07FDF09F0B9
:1017300073CF6CCFB901CA0139C19F775F77C7DF1B
:1017400098F39923B9F35523B9F3FF27951758F464
:10175000E52FE91BED3070F75E3B10F0F1E41CC0A3
:101760009034E0F40AC0E92FE51BED3028F79E3BEA
:1017700010F0F1E411C0503488F4F9EA88232AF01B
:101780009A95660F771F881FDAF744232AF05A9537
:10179000220F331F441FDAF79F1B5F1BFF931F931A
:1017A0000F93FF92EF9279018A01BB27AB2F9B0128
:1017B000AC015FD09701A801BF937B018C01AA27E0
:1017C000BA2FB901CA0155D0AF919701A801EF9086
:1017D000FF900F911F91CADD58DFAAD04F9140FFB3
:1017E0000895552747FD509502C010CFDFC077DF21
:1017F000E8F39923D9F3940F511DBBF39150504056
:1018000094F059F0882332F0660F771F881F9150AB
:101810005040C1F79E3F510544F7880F911D9695A2
:10182000879597F908955F3FACF0983E9CF0BB27F1
:10183000869577956795B79508F4B1609395C1F74C
:10184000BB0F58F711F460FFE8CF6F5F7F4F8F4FEA
:101850009F4FE3CF5FCF0BD018CFE1DE28F0E6DE5D
:1018600018F0952309F0D2CED7CE112453CF2FDF15
:10187000A0F3959FD1F3950F50E0551F629FF001A3
:10188000729FBB27F00DB11D639FAA27F00DB11DFC
:10189000AA1F649F6627B00DA11D661F829F222785
:1018A000B00DA11D621F739FB00DA11D621F839F0C
:1018B000A00D611D221F749F3327A00D611D231FE2
:1018C000849F600D211D822F762F6A2F11249F5730
:1018D00050408AF0E1F088234AF0EE0FFF1FBB1F53
:1018E000661F771F881F91505040A9F79E3F5105F2
:1018F00070F08CCE0FCF5F3FECF3983EDCF3869513
:1019000077956795B795F795E7959F5FC1F7FE2B9C
:10191000880F911D9695879597F908959F938EDE70
:101920000F9007FCEE5FC2CE11F40EF475CE3EC0F0
:10193000D6DED0F39923D9F3CEF39F57550B87FF0B
:1019400043D00024A0E640EA900180585695979530
:1019500028F4805C660F771F881F20F02617370752
:10196000480730F4621B730B840B202931294A2B62
:10197000A69517940794202531254A2758F7660F16
:10198000771F881F20F026173707480730F4620BAF
:10199000730B840B200D311D411DA09581F7B901FA
:1019A000842F9158880F9695879508959F3F31F021
:1019B000915020F4879577956795B795880F911D7D
:1019C0009695879597F9089591505040660F771F27
:1019D000881FD2F708959F938F937F936F93FF9300
:1019E000EF939B01AC0137DFEF91FF9105D02F9171
:1019F0003F914F915F912FCFDF93CF931F930F9321
:101A0000FF92EF92DF927B018C01689405C0DA2E81
:101A1000EF012DDFFE01E894A591259135914591C7
:101A20005591AEF3EF01A2DCFE019701A801DA9413
:101A300079F7DF90EF90FF900F911F91CF91DF9199
:101A4000089509D0A59F900DB49F900DA49F800D7F
:101A5000911D11240895A29FB001B39FC001A39FBF
:101A6000700D811D1124911DB29F700D811D1124D7
:101A7000911D08950F931F93CF93DF9382309105AB
:101A800010F482E090E0E0913309F091340930E005
:101A900020E0B0E0A0E0309799F42115310509F479
:101AA0004AC0281B390B24303105D8F58A819B8127
:101AB0006115710589F1FB0193838283FE0111C0D9
:101AC000408151810281138148175907E0F048177E
:101AD000590799F4109761F012960C931297139688
:101AE0001C933296CF01DF91CF911F910F910895F2
:101AF0000093330910933409F4CF2115310551F0C7
:101B00004217530738F0A901DB019A01BD01DF013B
:101B1000F801C1CFEF01F9CF9093340980933309D5
:101B2000CDCFFE01E20FF31F819391932250310933
:101B300039832883D7CF2091310930913209232B63
:101B400041F4209102023091030230933209209334
:101B5000310920910002309101022115310541F433
:101B60002DB73EB74091040250910502241B350B5E
:101B7000E0913109F0913209E217F307A0F42E1B2E
:101B80003F0B2817390778F0AC014E5F5F4F2417E1
:101B9000350748F04E0F5F1F5093320940933109CB
:101BA000819391939FCFF0E0E0E09CCFCF93DF93C0
:101BB0000097E9F0FC01329713821282A091330959
:101BC000B0913409ED0130E020E01097A1F42081BC
:101BD0003181820F931F20913109309132092817EA
:101BE000390709F061C0F0933209E0933109DF91C0
:101BF000CF910895EA01CE17DF07E8F54A815B81AE
:101C00009E0141155105B1F7E901FB83EA83499132
:101C10005991C40FD51FEC17FD0761F480819181A4
:101C20000296840F951FE9019983888382819381AD
:101C30009B838A83F0E0E0E012968D919C9113974C
:101C40000097B9F52D913C911197CD010296820F25
:101C5000931F20913109309132092817390739F63D
:101C6000309751F51092340910923309B09332092C
:101C7000A0933109BCCFD383C28340815181840FAB
:101C8000951FC817D90761F44E5F5F4F888199810E
:101C9000480F591F518340838A819B81938382839C
:101CA0002115310509F0B0CFF0933409E0933309E1
:101CB0009ECFFD01DC01C0CF13821282D7CFFB0182
:101CC000DC0102C001900D9241505040D8F70895B8
:101CD0000F931F93CF93DF93CDB7DEB72E970FB639
:101CE000F894DEBF0FBECDBF8C01FA0186E08C8375
:101CF0001A83098377FF02C060E070E861507109C0
:101D00007E836D83A901BF01CE01019651D04D8123
:101D10005E8157FD0AC02F813885421753070CF4A6
:101D20009A01020F131FF80110822E960FB6F89435
:101D3000DEBF0FBECDBFDF91CF911F910F910895F0
:101D40000F931F93CF93DF93CDB7DEB72E970FB6C8
:101D5000F894DEBF0FBECDBF8C01FA018EE08C83FC
:101D60001A83098377FF02C060E070E8615071094F
:101D70007E836D83A901BF01CE01019619D04D81EB
:101D80005E8157FD0AC02F813885421753070CF436
:101D90009A01020F131FF80110822E960FB6F894C5
:101DA000DEBF0FBECDBFDF91CF911F910F91089580
:101DB0002F923F924F925F926F927F928F929F925B
:101DC000AF92BF92CF92DF92EF92FF920F931F9349
:101DD000CF93DF93CDB7DEB72B970FB6F894DEBF66
:101DE0000FBECDBF7C013B018A01FC011782168228
:101DF000838181FFD0C1CE0101965C01F7019381FF
:101E0000F30193FD859193FF81913F01882309F4AC
:101E100049C1853239F493FD859193FF81913F014A
:101E2000853221F4B70190E0CFD1E8CF912C212C5D
:101E3000312CFFE1F31538F08B3211F190F4803240
:101E400009F1833229F137FC3CC020ED280F2A30FC
:101E500050F536FE20C08AE0989E200D1124922E67
:101E600006C08D3291F0803371F7689430F8F30139
:101E700093FD859193FF81913F018111DACF21C0BC
:101E8000689431F8689432F8F2CF689433F8EFCF61
:101E9000689434F8ECCFEAE02E9E200D1124222E17
:101EA000689435F8E4CF8E3229F436FCFBC0689490
:101EB00036F8DDCF8C3619F4689437F8D8CF8836E9
:101EC000B1F2982F9F7D95549330D8F0833691F1DD
:101ED0008337B1F1833509F05EC02801F2E04F0E7F
:101EE000511CF801C080D180692D70E036FC02C021
:101EF0006FEF7FEFC60152D14C01689437F8820131
:101F00000AC00C5F1F4FFFE3F98388248394912C50
:101F10006501E89437F833FE2AC0522C81149104ED
:101F200059F5552009F46ACFB70180E290E04CD111
:101F30005A94F7CFF801808189830E5F1F4FE5CF58
:101F40002801F2E04F0E511CF801C080D180692DAC
:101F500070E036FC02C06FEF7FEFC6012AD14C0162
:101F60008201D7CFB70180E290E02ED12A942814C5
:101F7000190409F0B8F7D1CFF60137FC859137FE87
:101F800081916F01B70190E01FD151105A94F1E097
:101F90008F1A9108C3CF843619F0893609F073C0BF
:101FA000F80137FE67C060817181828193810C5F87
:101FB0001F4FF32DFF763F2E97FF09C09095809518
:101FC000709561957F4F8F4F9F4F689437F82AE047
:101FD00030E0A50129D1C82ECA188C2C432C36FE1E
:101FE0000CC0E89440F8C91440F434FE05C032FC3B
:101FF00003C0F32DFE7E4F2E892C44FEA6C0FE01A9
:10200000EC0DF11D8081803309F098C0242D297ECC
:10201000422E842D8870582E43FCA5C040FE9FC0E0
:102020009C2C821418F42C0C922C981844FEA1C0FD
:10203000B70180E390E0C8D042FE08C088E790E096
:1020400041FE02C088E590E0B701BED0C91408F493
:102050009CC0CA94D12C9FEFC91AD90ACA0CDB1CA8
:10206000F60182916F01B70190E0AED0AC14BD04CF
:10207000B9F757CF60817181072E000C880B990B3F
:102080000E5F1F4F96CFD32CE894D4F82AE030E0AF
:102090008537E1F1232D297FD22E8F36A9F1F0F477
:1020A000883551F1F701868197812B960FB6F89408
:1020B000DEBF0FBECDBFDF91CF911F910F91FF907B
:1020C000EF90DF90CF90BF90AF909F908F907F90D8
:1020D0006F905F904F903F902F900895803749F018
:1020E000883701F7D4FE02C06894D2F820E130E0CE
:1020F0000DC06894D4F8F6CF34FE03C0822F8660FA
:10210000D82E20E132E002C028E030E0F801D7FE0E
:102110000EC060817181828193810C5F1F4FA50188
:1021200083D0C82ECA183D2CE89437F856CF60816A
:10213000718190E080E00E5F1F4FF1CF42FC02C042
:10214000839467CF8394839464CF842D867809F435
:1021500060CFF6CFB70180E290E036D0839482144E
:10216000C8F3512C63CF522C5818821408F45ECF58
:10217000F8CF842D867809F469CF8BE241FE80E2A6
:1021800047FC8DE2B70190E060CFB70180E390E0BB
:102190001BD09A945BCF8FEF9FEF87CFFC01059008
:1021A000615070400110D8F7809590958E0F9F1F59
:1021B0000895FC016150704001900110D8F780959E
:1021C00090958E0F9F1F08950F931F93CF93DF93CA
:1021D000182F092FEB018B8181FD09C01FEF0FEF35
:1021E000812F902FDF91CF911F910F91089582FF42
:1021F00014C02E813F818C819D81281739073CF4C2
:10220000E881F981CF0101969983888310838E81BB
:102210009F8101969F838E83E3CFE885F985812F87
:102220000995892BA1F3DACFFA01AA27283051F1B9
:10223000203181F1E8946F936E7F6E5F7F4F8F4FF7
:102240009F4FAF4FB1E03ED0B4E03CD0670F781F56
:10225000891F9A1FA11D680F791F8A1F911DA11D3B
:102260006A0F711D811D911DA11D20D009F4689474
:102270003F912AE0269F11243019305D3193DEF61C
:10228000CF010895462F4770405D4193B3E00FD0D2
:10229000C9F7F6CF462F4F70405D4A3318F0495DBD
:1022A00031FD4052419302D0A9F7EACFB4E0A695A0
:1022B0009795879577956795BA95C9F700976105C2
:1022C000710508959B01AC010A2E06945795479518
:1022D00037952795BA95C9F7620F731F841F951F0D
:0822E000A01D0895F894FFCF42
:1022E800000035092000FFFF050000803F0000FFC7
:1022F800FF0000484300000000DB0FC93F72656320
:10230800656976656420257520627974657300496E
:102318005231285246293A202575204952322852EE
:1023280042293A202575204952332846293A202542
:102338007520495234284C46293A2025752049529F
:1023480035284C42293A20257500456E636F64652F
:102358007220523A20257520456E636F646572209D
:062368004C3A202575002F
:00000001FF
